:020000040800F2
:10000000602F002041020008F9160008C114000802
:10001000B116000887130008313F000800000000F7
:100020000000000000000000000000000D3C00087F
:10003000151400080000000003130008E53C000848
:100040005B0200085B0200085B0200085B0200081C
:100050005B0200085B0200085B0200085B0200080C
:100060005B0200085B0200085B0200085B020008FC
:100070005B0200085B0200085B0200085B020008EC
:100080005B0200085B0200085B0200085B020008DC
:100090005B0200085B0200085B0200085B020008CC
:1000A0005B0200085B0200085B0200085B020008BC
:1000B0005B0200085B0200085B0200085B020008AC
:1000C0005B0200085B0200085B0200085B0200089C
:1000D0005B020008613D00085B0200085B0200084B
:1000E0005B0200085B0200085B0200085B0200087C
:1000F0005B0200085B0200085B0200085B0200086C
:100100005B0200085B0200085B0200085B0200085B
:100110005B0200085B0200085B0200085B0200084B
:100120005B0200085B0200085B0200085B0200083B
:100130005B0200085B0200085B0200085B0200082B
:100140005B0200085B0200085B0200085B0200081B
:100150005B0200085B0200085B0200085B0200080B
:100160005B0200085B0200085B0200085B020008FB
:100170005B0200085B0200085B0200085B020008EB
:100180005B0200085B02000800F002F800F049F88A
:100190000AA090E8000C82448344AAF10107DA45E2
:1001A00001D100F03EF8AFF2090EBAE80F0013F0EB
:1001B000010F18BFFB1A43F001031847B0430000BA
:1001C000D0430000103A24BF78C878C1FAD852074B
:1001D00024BF30C830C144BF04680C6070470000C1
:1001E0000023002400250026103A28BF78C1FBD840
:1001F000520728BF30C148BF0B607047662904F022
:100200003B81002070471FB504F031F900F00CFB72
:1002100004000020002104F09DF8E0601FBD10B52F
:1002200010BD00F01DFC1146FFF7EDFF03F088FF45
:1002300000F03BFC03B4FFF7F2FF03BC03F098FEB1
:100240000948804709480047FEE7FEE7FEE7FEE76A
:10025000FEE7FEE7FEE7FEE7FEE7FEE704480549A6
:10026000054A064B70470000053D0008890100085B
:1002700060290020602F0020602B0020602B0020D0
:1002800072B6704762B67047EFF3108072B670476F
:1002900080F31088704730BF704720BF7047B0FAB6
:1002A00080F0704790FAA0F0B0FA80F0704790FAB2
:1002B000A0F07047704700000FB4044910B503AABE
:1002C000029800F09FFA10BC5DF814FB1C0000209F
:1002D0002DE9F0474FF0000A89460446C0F820A0F7
:1002E0002046E1688847002876D0252806D0D4E942
:1002F00001219047206A401C2062F1E7E168204616
:1003000000258847C4F81CA006460027C4F818A09A
:100310002A2E09D0304603F024FE38B304EB8708B8
:10032000303EC8F8186019E059F8041B204604EB69
:1003300087029161E1688847012F064618D1E0697C
:10034000002820DA25F020051DE0D8F8180000EB81
:10035000800006EB40003038C8F818002046E168FD
:100360008847064603F0FDFD0028EED1012F0AD094
:100370002E2E08D12046E16888477F1C0646022FB2
:1003800045F02005C4DBA069002803DA404245F0AF
:100390000105A061E80701D025F01005B6B1A6F16E
:1003A0004100192802D8203645F400654A463146F6
:1003B000204625604D46FFF721FF58B1012806D0A1
:1003C000ED1D25F0070000F1080989E704E005F1BB
:1003D000040985E730468AE7206ABDE8F087704760
:1003E00070477047704770472DE9FF4F0C461E4617
:1003F0004FF0FF378BB0D2E90001DDF860800A9042
:100400008A46C1F30A5505B93D46002108464FF01A
:100410000000BAF1000F00F4400005DA00EB8000A4
:100420004FF4400101EA50004FEA9059B9F1010F31
:1004300000DDB9460A9850EA4A000ED044F6105042
:10044000A5F2FF3545432F14B8F1000F1ED07542B9
:10045000291E1EDDC9F100021CE0B8F1010F4FF0AA
:10046000000001D0302103E0F24305E02154401C9C
:10047000B042FBDB30460022002121540B99C1F829
:100480000880C1E900200FB0BDE8F08FBD1B6D1CD6
:10049000DEE74A4600DA694206A800F067FA06ABD2
:1004A00093E8070003AB83E8070050460A9900F081
:1004B00045FB8DE80700A0F500501F380090039819
:1004C000002D0ADD42F21F014A460844002303A919
:1004D0000390684600F0AEFD09E0A0F500504A46E2
:1004E0001F38002303A90390684600F0B8FD8DE88B
:1004F00007000004000C03D04FF0FF30410800E07B
:100500001046B8F1000F03D00022009215461EE0FD
:10051000751E05D400F08CF9303262556D1EF9D588
:10052000B3460122084302D000227F1C04E0207859
:10053000302801D100227F1E002A099784D01DE0B7
:10054000112D07DA00F074F9303262556D1C50EA53
:100550000102F5D1084302D00098C8B10EE0002195
:10056000681E05E0235C625C63542254401E491CF3
:100570008142F7DBAB46A81B401E0990002004F81F
:100580000B000B98099AC0F80880C0E9002B7AE7A5
:1005900011264FF0000857E72DE9F04F8846044632
:1005A000D21D22F0070191B0D1E90001CDE90A0185
:1005B00003F0BFFC02460B98C00F01D02D2007E0CE
:1005C0002068810701D52B2002E0202101EAC0002C
:1005D000032A099001D0072A05DB0346414620463D
:1005E00000F084F90BE12078800601D5E06900E095
:1005F0000620B8F1650F814606D0B8F1660F18D015
:10060000B8F1670F70D131E00020B9F1110F0090FF
:1006100001DB112301E009F101030AAA01A90CA8D9
:10062000FFF7E2FEDDE90C70002609F101058346C3
:1006300047E001204B4600904FF000470AAA01A96D
:100640000CA8FFF7D1FEDDE90DB00C995D46002640
:1006500010B909F101000D18B9EB050003D4C0F180
:10066000FF3609F10105A5EB09002BE0B9F1010FF7
:1006700001DA4FF001090020B9F1110F009048464E
:1006800001DD112300E003460AAA01A90CA8FFF727
:10069000ABFEDDE90C704D4600268346207800074E
:1006A0000AD4AB4500DA5D4601A8012D04DD4119ED
:1006B00011F8011C302907D04F4502DA17F1040F59
:1006C00004DA012082460FE06D1EEEE7002F02DC07
:1006D000ED1B3E4403E0781CA84200DD7D1CB81BE6
:1006E00000F1010A4FF000472078000703D4AA4523
:1006F00001DB4FF0FF3A0021B7F1004F0DF1430845
:100700008DF8431024D002202B23002F01DA7F42E2
:100710002D230A21021EA0F1010000DC5FB197FB2E
:10072000F1FC97FBF1F201FB1C7C17460CF1300C3D
:1007300008F801CDEEE7A8F1010003702188090552
:1007400001D5452100E06521A0F1010800F8011C58
:1007500009980FA9A1EB0807FF1D00B1012041195D
:1007600001EBEA70A1693844081A401EA0612078A4
:10077000C00602D42046AFF30080099828B1D4E91E
:1007800001219047206A401C20622078C00622D5B3
:100790002046AFF300801EE0002E04DBB34502DDEF
:1007A00001A8805D00E03020D4E901219047206A53
:1007B000401C2062761CAAF101005FEA000A0AD1FF
:1007C00000F032F8C0680168405CD4E9012190472C
:1007D000206A401C2062281EA5F10105DCDC07E030
:1007E000D4E9012118F8010B9047206A401C2062CF
:1007F000381EA7F10107F3DC2046AFF30080032089
:1008000011B041E6074B70B50D467B4400F05BF834
:100810000446284600F01CF910B14FF0FF3070BDBF
:10082000204670BDC33800000048704720290020D2
:1008300030B5B0F10A024FEA900E71F100034EEAB2
:10084000817EB0EB0E0061EB91014FEA101E4EEA83
:10085000017E10EB0E0041EB11114FEA102E4EEA13
:10086000016E10EB0E0041EB11214FEA104E4EEAE3
:10087000014E10EB0E0041EB1141401841F1000117
:100880004FEAD00040EA41704FEAD10110EB8005F9
:100890004FEA810444EA907444EB01046D1944EB7F
:1008A0000404521BA3414FF0000348BF0A3200D595
:1008B00030BD401C41F1000130BD000001694A1CFF
:1008C00002610878704700B58FB0CDE90131002191
:1008D000059105497944CDE9031011466846FFF7B3
:1008E000F7FC0FB000BD0000E5FFFFFF2DE9F04170
:1008F0001F46044603260168072A01F4006004DB52
:1009000008B116A505E016A503E008B115A500E09D
:1009100015A521F010002060A069C01EA0610FB1D4
:10092000401EA0612046AFF300804FB1D4E9012101
:1009300038469047206A401C2062C01C206206E0B6
:10094000206AFAE7D4E9012115F8010B9047761ED9
:10095000F8D22046AFF30080BDE8F0814E414E0052
:100960006E616E00494E4600696E66002DE9F047E3
:10097000814616468AB0354878440DC88DE80D008A
:1009800032487844801C03AC0DC884E80D0041F661
:100990009B300844372190FBF1F290FBF1F5A5F173
:1009A000800501FB12041B3C02D56442012000E0DB
:1009B0000020DFF898A080460027FA44AAF1BE0A7A
:1009C0000EE0E0070AD03246684607EB47010123F4
:1009D0000AEB810100F043FB8DE8070064107F1CE7
:1009E000002CEED1194F7F44AE3F19E0E80715D037
:1009F00007EB04100DF1180A90E80E008AE80E00CB
:100A0000C068F04201D1981908903246012306A926
:100A100003A800F024FB03AB83E807006D10641CFF
:100A2000002DE3D14FF0010332466946B8F1000FC3
:100A300003A802D000F0FEFA01E000F010FBC9E9C3
:100A40000001C9F808200AB0BDE8F087D83B0000D3
:100A5000007B00F0800070470048704700290020AC
:100A60007546FFF7F9FFAE4605006946534620F08C
:100A70000700854618B020B5FFF7F0FBBDE8204021
:100A80004FF000064FF000074FF000084FF0000B4A
:100A900021F00701AC46ACE8C009ACE8C009ACE8FD
:100AA000C009ACE8C0098D46704710B50446AFF3E5
:100AB00000802046BDE81040FFF7BCBB4FF0013C72
:100AC00050F8042B51F8043B9A4221D1A2EB0C03BD
:100AD000934313EACC1317D150F8042B51F8043B7D
:100AE0009A4215D1A2EB0C03934313EACC130BD11A
:100AF00050F8042B51F8043B9A4209D1A2EB0C03A5
:100B0000934313EACC13DBD04FF00000704700BFD3
:100B1000D01A01BAB1FA81F101F0180122FA01F0FC
:100B2000CB40C1F12001DBB2C0B2C01A2CFA01F3F4
:100B3000D11A914311EAC311E6D170475FEA400C24
:100B400008BF91F0000F4FEA8C234FEAC12243EA1D
:100B500051514FEA1C5018BF00F5F0404FEA3000E9
:100B600018BF41F000415FEA6C5C00F02980BCF1E5
:100B7000FF3F08BF40F080407047130C06BF1204CF
:100B80004FF0100C4FF0000C130E04BF12020CF1CA
:100B9000080C130F04BF12010CF1040C930F04BFD7
:100BA00092000CF1020CD30F04BF52000CF1010CA7
:100BB00011464FF00002A0F11F00A0EB0C0070479F
:100BC00011F0004F08BF704731F000413FF4D5AF3E
:100BD0000B0C06BF09044FF0100C4FF0000C0B0E6D
:100BE00004BF09020CF1080C0B0F04BF09010CF142
:100BF000040C8B0F04BF89000CF1020CCB0F04BF57
:100C000049000CF1010CCCF12003A0EB0C0022FAFE
:100C100003F302FA0CF241EA030100F1010070470C
:100C200020F07F4C80EA030023F07F47ACEB070302
:100C300003F57C5300F0004003F1FF032DE98049E8
:100C40004FEA154B09B44FEA144325EA0B4E24EA48
:100C500003480FF2042606EB132749083E785FEAA3
:100C6000320203FB0667C7F5000707FB06F64FEAEB
:100C700054374FEAD64606F1020607FB066CCCF164
:100C8000005C4FEA1C472CEA074C07FB06F40CFB00
:100C900006F504EB15464FEA961634BF00204FF0D8
:100CA00000404FEAD13706FB07FC4FEA1C4C0CFB17
:100CB0000BF7D21B03FB0CF761EB07010CFB0EF7E4
:100CC000B0EB074072EB17420CFB08F734BFA2EB06
:100CD0000742B2EB074261EB17414FEA0C444FEA7F
:100CE000910706FB07FC4FEA1C4C0CFB0BF7B0EB23
:100CF000C74072EB573203FB0CF734BFA2EBC7427D
:100D0000B2EBC74261EB57310CFB0EF7B0EBC700FB
:100D100072EB57720CFB08F734BFA2EBC702B2EBC1
:100D2000C70261EB5771039F4FEA816141EA92115B
:100D300004EBCC044FEAD1374FEA826206FB07FC92
:100D400042EA90124FEA80604FEA1C4C0CFB0BF712
:100D5000D21B03FB0CF761EB07010CFB0EF7B0EBAA
:100D6000074072EB17420CFB08F734BFA2EB0742B7
:100D7000B2EB074261EB17414FEA8C554FEA9107FE
:100D800004EB9C2406FB07FC4FEA1C4C0CFB0BF706
:100D9000B0EBC74072EB573203FB0CF734BFA2EB4A
:100DA000C742B2EBC74261EB57310CFB0EF7B0EB19
:100DB000C70072EB57720CFB08F734BFA2EBC702F7
:100DC000B2EBC70261EB577115EB4C254FEA81611D
:100DD00041EA92114FEA82624FEAD13742EA901219
:100DE00006FB07FC44F100044FEA80604FEA1C4C0C
:100DF0000CFB0BF7D21B03FB0CF761EB07010CFBA1
:100E00000EF7B0EB074072EB17420CFB08F734BF4C
:100E1000A2EB0742B2EB074261EB174115EB1C1541
:100E20004FEA813141EA92414FEA823242EA9042EE
:100E30004FEA80304FEA0C7644F1000448EA03435D
:100E40004EEA0B484FF0000EB2EB080C71EB0307B3
:100E500024BF624639464EEB0E0E4FF0000B0018D1
:100E6000524149414BEB0B0BB2EB080C71EB030702
:100E70007BF1000B24BF624639464EEB0E0E4FF05D
:100E8000000B0018524149414BEB0B0BB2EB080C25
:100E900071EB03077BF1000B24BF624639464EEB32
:100EA0000E0E51EA020718BF46F0010616EB0E7649
:100EB00055F1000254F1000103D5BDE88901BDE8F8
:100EC0000088BDE88901BDE80048B619524141EBF0
:100ED0000101A3F10103704780807F7E7D7C7B7AD6
:100EE0007978777676757473727171706F6E6E6DD6
:100EF0006C6C6B6A6A69686867666665646463637C
:100F000062616160605F5F5E5E5D5D5C5C5B5B5A01
:100F10005A5959585857575656555555545453536E
:100F200052525251515050504F4F4F4E4E4D4D4DC9
:100F30004C4C4C4B4B4B4A4A4A4949494848484714
:100F40004747474646464545454444444443434352
:100F50004342424242414141002B9C4630D47700FB
:100F60002BD01CB54FEA370703B44FF010004FF0F9
:100F70001001BAF1000F06D0BCF1000FDCBF40F049
:100F8000080040F008014FF000000FBCBDE8104021
:100F90000BF1010BBBF1010F08BF5FEA170722BF7E
:100FA00012F1010211F101014FF0004143F1000380
:100FB00000F0004043EA00007047F9D35708D0E73B
:100FC00046EA064613F1400F4FEA16461FDD13F1BD
:100FD000200FDFBF16430A46002120335B42BED0FC
:100FE000C3F1200746EA064602FA07F74FEA16461B
:100FF00046EA0706C3F1200722FA03F201FA07F7CF
:1010000021FA03F14FF0000342EA0702A7E746EA9C
:10101000020646EA06464FEA164646EA0106BCBF05
:1010200046EA0646360C4FF000034FF000024FF040
:10103000000194E72DE9804C9A46934670B491E8FC
:10104000380007C831EA400C48BF34EA430C03D5E6
:10105000FFF7E6FDFFF780FFF0BCBDE8008C2DE94F
:10106000804C9A46934670B491E8380007C810F057
:10107000804F08BF13F0804F03D100F005F8FFF751
:101080006BFFF0BCBDE8008C20F07F4780EA0300D6
:1010900023F07F4C07EB0C03A3F57C5300F00040DA
:1010A000A3F1FE0392F0000F00F0B38095F0000F63
:1010B00000F077802DE901494FEA11404FEA1446CC
:1010C00021EA004800FB06FC24EA064708FB06F676
:1010D00007FB08F800FB07F718EB06484CEB164C2B
:1010E0004FEA124B18EB07484FEA15464CEB1740F6
:1010F00022EA0B4E0BFB06FC25EA06470EFB06F622
:1011000007FB0EFE0BFB07F71EEB064E4CEB164CD7
:101110004FF000061EEB074E4CEB174B18EB0B087D
:1011200040F1000018EB0E0B58EB000840F10000F6
:101130008F1A4FF000013CBFC943661B14BFB5EBCB
:10114000040C00213CBFC943F61B4FEA17444EEA8A
:101150008E0E27EA04454FEA1C4704FB07622CEA7F
:10116000074C05FB07F70CFB05F604FB0CFC16EB24
:10117000074642EB174216EB0C4642EB1C421BEBB8
:10118000060658EB0202414146EA9E0601D5BDE83B
:101190000189B619524141EB0101A3F10103BDE8F8
:1011A00001894FEA14454FEA114724EA054621EA2E
:1011B000074C05FB07F406FB07F70CFB06F105FBE4
:1011C0000CFC11EB074144EB17444FEA124711EBBB
:1011D0000C4144EB1C4422EA074C05FB07F206FBDA
:1011E00007F70CFB06F605FB0CFC16EB074642EB7B
:1011F000174216EB0C4642EB1C456A1854F10001ED
:1012000048BF7047B619524141EB0101A3F10103F8
:10121000704795F0000F37D04FEA11424FEA14475C
:1012200021EA024624EA074C02FB07F106FB07F716
:101230000CFB06F402FB0CFC14EB074441EB1741DA
:101240004FEA154714EB0C4441EB1C4125EA074CCF
:1012500002FB07F506FB07F70CFB06F602FB0CFC8E
:1012600016EB074645EB174516EB0C4645EB1C42C3
:10127000121951F1000148BF7047B619524141EBB4
:101280000101A3F1010370474FEA14454FEA1147EA
:1012900024EA054621EA074C05FB07F106FB07F7A0
:1012A0000CFB06F24FF0000605FB0CFC12EB0742AC
:1012B00041EB174112EB0C4251EB1C4148BF704708
:1012C000921841EB0101A3F10103704722484FF648
:1012D000FF710170002080F309882048016881F3C4
:1012E00008881F484FF08051016062B6FEE71C4835
:1012F0004FF080510160704719484FF080510160F4
:10130000704772B6EFF3098050B11EF0100F08BF9E
:1013100020ED108A203880E8F00F12490968086033
:1013200000B5114880475DF804EB104810490A7871
:1013300002700C480F490A680260106890E8F00FCC
:1013400020301EF0100F08BFB0EC108A80F309881F
:101350004EF0040E62B6704722ED00E0EC00002073
:1013600004ED00E0E40000204126000866000020B3
:1013700067000020E80000201FB5684602F0F4FB7B
:10138000019804B010BDFEE710B500F017F8BDE8F5
:10139000104000F011B8000010B5FEF775FF0446CC
:1013A0001021044800F085F92046BDE81040FEF702
:1013B0006FBF000098120020FFF7EEBF0249002027
:1013C000086000F009B80000200000200149086012
:1013D000704700002000002010B5FFF7CDFF08493E
:1013E0000A6842F080720A60064900224A600A6870
:1013F00042F001020A60BDE81040FFF7E7BF0000BD
:10140000FCED00E0001000E001484068704700007B
:10141000001000E070472DE9F041002201274FF055
:10142000030C07FA02F50B682B40AB422CD106687F
:1014300053000CFA03F4A64306600E79D0F800803E
:101440009E4046EA080606600E79012E01D0022E63
:1014500012D18668A64386604E79D0F808809E40F7
:1014600046EA080686604668AE43466045688E795F
:101470009640B6B235434560C568A543C560CC7992
:101480009C40C3681C43C460521C102AC9D3BDE8E9
:10149000F08110B54B07DB0E9A40C90800EB8100C4
:1014A000016A0F249C40A1430162016A1143016259
:1014B00010BD406980B27047418370470183704717
:1014C000FEE700007CB50121102002F031FB4FF453
:1014D0006044009401208DF8040000208DF806007F
:1014E0008DF8070003208DF80500054D6946284654
:1014F000FFF791FF21462846FFF7E0FF7CBD000083
:101500000010024070B54FF40051154A4D008E0096
:1015100000280BD0012817D002281AD003281ED18A
:101520003146BDE870401046FFF7C8BF144620465C
:10153000FFF7C4FF29462046FFF7C0FF314620468B
:10154000BDE87040FFF7BABFBDE870401046FFF736
:10155000B5BF2946BDE870401046FFF7AFBF70BD6C
:101560000010024070B54FF40051154A4D008E0036
:1015700000280BD0012817D002281AD003281ED12A
:101580003146BDE870401046FFF796BF144620462E
:10159000FFF792FF29462046FFF78EFF314620468F
:1015A000BDE87040FFF788BFBDE870401046FFF708
:1015B00083BF2946BDE870401046FFF77DBF70BD70
:1015C000001002402DE9F0414FF48047374D7E0076
:1015D0004FF40058002816D0012843D0022852D0DA
:1015E000032861D12846FFF764FF80F4004404F427
:1015F00000412846FFF762FF26EA04012846BDE8BD
:10160000F041FFF759BF2846FFF753FF80F400541D
:1016100004F400512846FFF751FF28EA0401284648
:10162000FFF74AFF2846FFF744FF80F4804404F4A4
:1016300080412846FFF742FF27EA04012846FFF7CA
:101640003BFF2846FFF735FF80F4004404F40041D7
:101650002846FFF733FF26EA04012846BDE8F0419B
:10166000FFF72ABF2846FFF724FF80F4005404F454
:1016700000512846FFF722FF28EA04012846BDE86A
:10168000F041FFF719BF2846FFF713FF80F48044AD
:1016900004F480412846FFF711FF27EA0401284699
:1016A000BDE8F041FFF708BFBDE8F081001002403F
:1016B000FEE70A460021AFF3008010B500230024A6
:1016C0001B020B43641C042CFAD300F0030424B95E
:1016D00009E000F8011B521E641C22B1042CF8D34F
:1016E00001E008C0121F042AFBD202E000F8011B2F
:1016F000521E002AFAD110BD7047000030B50F23EA
:10170000C27801250178002A1FD0154A126802F418
:10171000E062C2F5E062C2F30722C2F10404D340E2
:101720004278A24084781C401443220101F1E02158
:1017300081F80024007800F01F018D4040098000EE
:1017400000F1E020C0F8005130BD01F01F008540DD
:101750004809800000F1E020C0F8805130BD000051
:101760000CED00E0024908430249086070470000A0
:101770000000FA050CED00E0704700000248006828
:10178000002800D0004770473800002010B50446FC
:1017900000F0AAF83F48002202703F4802703F481C
:1017A00002703F4802603F4802603F4802703F4875
:1017B00002703F4802703F4802603F4802603F4865
:1017C00002603F48016839B13E48006810B903E043
:1017D000491E04C00029FBD13B4802603B4802601F
:1017E0003B4802603B4802603B4802603B48026065
:1017F0003B4802603B48027001F0A4FA01F0DAFABB
:10180000204601F059F82088002841D1204601F0F7
:10181000A7F8208800283BD1204601F0ADF82088A9
:10182000002835D1204601F011F9208800282FD159
:10183000204601F0B3FA2088002829D1204601F083
:1018400073FB2088002823D1204601F01FFD20884B
:1018500000281DD1204601F04FF82088002817D11C
:10186000204602F003F82088002811D1204601F01C
:1018700065FC208800280BD1204602F051F8208812
:10188000002805D101F016F8BDE81040FFF774BF3D
:1018900010BD00004C0000204D0000208000002002
:1018A000E4000020E800002066000020670000201F
:1018B0006800002074000020780000207C000020D8
:1018C0008C440008884400082C00002030000020D0
:1018D00034000020380000203C00002040000020A0
:1018E00044000020AE000020054806490068096851
:1018F00000EB8100044920F00700086070470000F9
:10190000884400088C440008EC000020054800785A
:10191000012805D104490878FA2801D2401C087032
:10192000704700004D0000204C00002010B52248F8
:10193000007801283ED1FEF7A7FC04461F4908782D
:1019400040B1401EC0B2087048B12046BDE810400A
:10195000FEF79EBC2046BDE81040FEF799BC184833
:10196000007820B12046BDE81040FEF791BC01F0A0
:10197000D7F914490870144900EB400051F82000D1
:101980001249086012490968884204D12046BDE81E
:101990001040FEF77DBC50F8841F491C01600D48C3
:1019A0000168491C0160FFF7A7FC2046BDE8104014
:1019B000FEF76EBC10BD00004D0000204C00002062
:1019C0008000002067000020AC230020E8000020F9
:1019D000E4000020A40000202DE9F04104460E465A
:1019E000154616480078002804D042F6E1602880A9
:1019F000BDE8F081ECB1FEF747FC074610482060D7
:101A000066600026266284F82560A662402084F87D
:101A1000240004F1080001F0B6F8204601F004F8B3
:101A200008490888401C08803846FEF731FC2E80A3
:101A3000DEE745F6C3502880DAE700004C000020BE
:101A40004D555458640000202DE9F04F89B00646EA
:101A5000129D8B4692461C4664480078002805D0AB
:101A600046F2AE10288009B0BDE8F08F4EB1BAF151
:101A7000000F0AD0BAF5004F07D045F62560288040
:101A8000F1E745F6C3502880EDE7594930688842B0
:101A900003D045F6C4502880E5E74FF000090CB1AB
:101AA000C4F80090FEF7F0FB804696F82500514AF6
:101AB00080B1376A11688F421ED1401C86F825001C
:101AC0000CB1B06A20604046FEF7E2FB45F282703E
:101AD0002880C8E71068306290F8370086F8240044
:101AE000012086F825000CB1B06A20604046FEF760
:101AF000CFFBA5F80090B6E75FEA0A4006D540465E
:101B0000FEF7C6FB46F2B0102880ACE73A480078F2
:101B100030B14046FEF7BCFB46F663502880A2E792
:101B200097F8370091F83710924688421ED997F8F7
:101B30003600082838D2DFE800F004131616131315
:101B40001616384601F09AF9DAF8000090F83700D6
:101B500087F8370001F002F9384601F055F905E041
:101B600087F8371002E0384600F0F4FF5B460422A5
:101B7000314601A800F076FF4046FEF789FB00F0F1
:101B8000D5F8FEF781FBDAF8002092F8351091B114
:101B9000012916D0022922D0032919D046F62E6138
:101BA0002980FEF775FB5EE74046FEF771FB46F6BF
:101BB0002D60288057E70CB1116C2160A5F80090CA
:101BC000EFE70CB1116C216046F2A9112980E8E71A
:101BD0000CB1C4F8009047F2D9212980E1E70CB19B
:101BE000116C216045F6C2512980DAE74C000020D3
:101BF0004D555458E4000020800000202DE9F84F96
:101C000004468846154645480078002804D046F228
:101C10000E202880BDE8F88F4CB1B8F1000F0AD033
:101C2000B8F5004F07D045F625602880F2E745F665
:101C3000C3502880EEE73A492068884203D045F631
:101C4000C4502880E6E7FEF71FFB8146DFF8D4B0DA
:101C5000206ADBF80010884206D04846FEF718FBE1
:101C600045F281702880D5E7FFF7CEFB0746A762D3
:101C700094F82500401EC0B284F8250030B14846D3
:101C8000FEF706FB45F283702880C3E704F10806DF
:101C90004FF0000A3089B0B3DBF8000094F824203C
:101CA00090F83710914213D001F0E8F8DBF80010FB
:101CB00094F8240081F8370001F050F8DBF80000B8
:101CC00001F0C0F8DBF80000174990F83700087001
:101CD00030688168216291F8370084F8240001207F
:101CE00084F8250000231A462046009700F0ACFF38
:101CF0004846FEF7CDFA5FEA084001D400F016F836
:101D0000A5F800A086E7FFE7C4F820A084F825A086
:101D10004846FEF7BDFAA5F800A07BE74C0000207E
:101D20004D555458E40000206600002010B51748B7
:101D30000078002829D116480078002825D1FEF720
:101D4000A3FA044600F0ECFF12490870124900EBB8
:101D5000400051F820001149086011490968884283
:101D600004D12046BDE81040FEF792BA50F8841F17
:101D7000491C01600B480168491C0160FFF7B7FA74
:101D80002046BDE81040FEF783BA10BD4C0000208D
:101D90008000002067000020AC230020E800002025
:101DA000E4000020A400002070B50446124800782A
:101DB000002803D046F66250208070BD0F4800789E
:101DC000012803D045F68960208070BD0C4D28782D
:101DD000FA2803D345F20920208070BDFEF754FA9B
:101DE00006462878401C287001F072F83046FEF74D
:101DF0004FFA0020208070BD4C0000204D000020D4
:101E00008000002070B5044617480078002803D0F1
:101E100046F66550208070BD14480078012803D034
:101E200045F68960208070BD114E307870B1FEF7A4
:101E30002BFA05463078401EC0B2307050B12846AB
:101E4000FEF726FA46F66350208070BD46F66450D1
:101E5000208070BD01F04AF82846FEF719FAFFF716
:101E600065FF0020208070BD4C0000204D00002048
:101E70008000002070B504460F4D2878002803D05C
:101E800045F68A60208070BD00F04AFF0B4908705B
:101E90000B4908700B4900EB400051F820000A493B
:101EA00008600A49086001202870FFF70FFA43F61E
:101EB0009920208070BD00004D00002067000020A8
:101EC00066000020AC230020E8000020E400002091
:101ED0002DE9F0410646FEF7D7F9234900250D808C
:101EE00022490D6022490D6022490D6022490D6092
:101EF00022490D81FEF7CCF9FEF7C6F920490C689E
:101F0000FEF7C6F917E0FEF7BFF907466C34E56344
:101F100025602563A561A582E5826562A562FFF75C
:101F200073FA20626C3C2046A0F86450D4F8B040AC
:101F30003846FEF7ADF9002CE5D1FEF7A5F91149B9
:101F40000C68FEF7A5F906E0FEF79EF921468D859F
:101F5000A469FEF79DF9002CF6D101F0C8FB01F051
:101F600077FD3580BDE8F0818E000020A0000020C4
:101F7000B4000020D400002078000020A02300201E
:101F8000A80000206C000020F8B5044669462048EF
:101F900000F040FBBDF8000008B12080F8BD6A46A3
:101FA0000021022000F078FBBDF8000008B120807D
:101FB000F8BDFEF769F9174E00253560FEF768F9A0
:101FC00000201549154A09681268914201D9B1FBF0
:101FD000F2F010B90A20B1FBF0F06A46002100F0DF
:101FE0005BFB69460A4800F055F9BDF8000008B1EE
:101FF0002080F8BDFEF748F909490D60094A3168AB
:102000001160094A01211170FEF742F92580F8BDDF
:102010004828002090000020B04400089C4400089C
:10202000A0000020940000209C00002002480068CE
:10203000002800D0004770473C0000202DE9FF4FEA
:1020400083B00446DDE91097DDE91785139E9346BA
:102050004E480078002805D047F24A10288007B083
:10206000BDE8F08F5CB1BBF1000F0CD07FB14848E8
:10207000006886420FD246F630602880EFE747F2CC
:10208000AD102880EBE747F24F102880E7E746F6CF
:102090002F602880E3E71298B04203D346F6316000
:1020A0002880DCE746F27320B9F1400F01D3288085
:1020B000D5E7B9F13F0F04D136498C4201D02880D1
:1020C000CDE7204601F0F2F84FF0000AA5F800A095
:1020D0005FEAC8700BD05FEA887008D538460021E7
:1020E00003E0C0F800A0001D491CB142F9D31298CA
:1020F00007EB8005CDE900682B463A46584606991D
:1021000000F000FAC4F828B00699E162049921624F
:1021100084F837902060A560169860606762A663B7
:10212000A4F83C80002004EB8001C1F870A0401CA2
:10213000C0B20028F7D004F15800149900F06CFCEC
:10214000204600F02DF8FEF79FF8054694F837007A
:1021500000F004FE204600F075FE204601F064F811
:102160000D490888401C08800C480078012805D0DB
:1021700007B02846BDE8F04FFEF78AB82846FEF7BC
:1021800087F807B0BDE8F04FFFF7D0BD4C00002046
:10219000AC440008E8220020AC0000204D000020E4
:1021A00002490968002900D0084770472C00002028
:1021B00070B504460D462F480078002803D047F23A
:1021C0004E10288070BD2C48844203D147F24C1039
:1021D000288070BD2CB9FEF757F828490C68FEF727
:1021E00057F8FEF751F8064694F8360008283AD218
:1021F000DFE800F004080C0C1C080C0C204600F072
:102200003DFE13E0204601F049FA0FE094F8340057
:10221000072808D2DFE800F00704070404040400DC
:10222000204600F0E3FC204601F038FA04F15800A3
:1022300000F0D6FB204600F025F8204601F006F815
:102240000F490888401E0880204601F02FF8FF2023
:1022500084F836003046FEF71BF800202880BDE8E1
:102260007040FFF763BD3046FEF712F846F62D606A
:10227000288070BD4C000020E8220020E4000020EF
:10228000AC00002002490968002900D008477047C7
:102290003000002070B504460D460E480078002836
:1022A00003D047F25510288070BDFDF7EDFF1CB13B
:1022B000094909688C4205D1FDF7EAFF47F257103A
:1022C000288070BDFDF7E4FF29462046BDE8704038
:1022D00001F03CB84C000020E400002002490968ED
:1022E000002900D008477047340000202DE9F05F36
:1022F00083468A4614461D4649480078002805D082
:1023000046F2AE1028800020BDE8F09FBAF1000F21
:1023100007D0BAF5004F04D045F62560288000208C
:10232000F2E7002604B12660FDF7AEFF81463D4F7F
:102330003868D0F84480B8F1000F1AD0A8F101082D
:10234000C0F844800CB1006C2060FFF75DF80146D6
:102350003868026C891AC0F89810D0F89C208A421C
:1023600001D2C0F89C104846FDF792FF2E804046EF
:10237000CAE75FEA0A4007D54846FDF789FF46F2FB
:10238000B01028800020BFE72748007838B14846C1
:10239000FDF77EFF46F6635028800020B4E7002159
:1023A0005B460722084600F05DFB4846FDF770FFDC
:1023B000FFF7BCFCFDF768FF8046396891F83500EF
:1023C00068B101281ED0032823D046F62E6028804D
:1023D0003868446C4046FDF75BFF204694E77CB1CB
:1023E000086C2060FFF710F801463868026C891A03
:1023F000C0F89810D0F89C208A4201D2C0F89C10F6
:102400002E80E5E70CB1086C206046F2A910288008
:10241000DEE704B1266047F2D9202880D8E7000023
:102420004C000020E40000208000002070B506462B
:102430000C461546002C07D0B4F5004F04D045F6E5
:1024400025602880002070BDFEF7DEFF02462B4687
:1024500021463046BDE8704000F0E2BF2DE9F0476C
:102460000646884691461F4624480078002804D036
:1024700047F259103880BDE8F08746F2D520B8F110
:10248000000F06D0B9F1000F05D0FDF7FDFE26B113
:1024900005E03880EFE73880EDE719490E684FF026
:1024A000000A316841B196F83C10C9070ED0FDF71B
:1024B000EFFE0024756A15E0FDF7EAFEC8F800A0FB
:1024C000C9F800A047F252103880D4E7FDF7E0FECB
:1024D000C8F800A0C9F800A047F254103880CAE735
:1024E0002D1D641C28680028FAD0C8F80040B06B85
:1024F000001BC9F80000A7F800A0BCE74C000020B2
:10250000E400002030B5039C02EB840222F00702B5
:102510000024B83AC2F8B4404FF48055C2F8B05025
:102520001525C2F8AC501425C2F8A8501325C2F8DE
:10253000A4501225C2F8A0501125C2F89C501025B5
:10254000C2F898500925C2F894500825C2F8905056
:102550000725C2F88C500625C2F888500525C2F818
:1025600084500425C2F880500325D567022595675D
:102570000125556714672C06D4669066244850667A
:102580004FF0123010664FF00330D0654FF002303C
:102590009065536511653120D06430209064292006
:1025A0005064282010642720D063262090632520C3
:1025B0005063242010632320D062222090622120C7
:1025C0005062202010621920D061182090611720DD
:1025D0005061162010614FF01130D0604FF0103074
:1025E00090604FF0093050604FF0083042F8040915
:1025F0004FF007301060101F4FF0063101604FF0B0
:10260000053140F8041C08384FF00431016030BD3A
:1026100009340008084A1278002A03D047F25D10F6
:1026200008807047054A904203D147F25B1008804A
:10263000704700F051BF00004C000020E82200204D
:1026400010B511480068002800D08047FEF7DCFE76
:102650000E490F4A09681368994207D088314A68C1
:10266000821A0A608C6822448A608839C3F88C0018
:10267000084AD1F8A8301068834201D2C1F8A800F6
:102680000020106010BD000040000020E400002089
:10269000E80000207C0000202DE9F04106460D46B0
:1026A00014461E480078002804D047F27520208088
:1026B000BDE8F0811A48007818B146F663502080D2
:1026C000F6E74DB1022D07D0042D06D0082D03D01A
:1026D00045F625602080EBE786B1FDF7D5FD07467E
:1026E0002A46104D23463146286800F091FF208885
:1026F00040B13846BDE8F041FDF7CABD47F27E2043
:102700002080D5E7286800F0B9FB3846FDF7C0FD0A
:10271000FFF70CFB00202080CAE700004C000020DF
:1027200080000020E40000202DE9F0471646DDE996
:102730000824484D2D78002D04D047F275202080C4
:10274000BDE8F087444D2D781DB146F663502080DA
:10275000F6E702F00E0547F27E2C45F6256845B1F6
:10276000022D06D0042D08D0082D02D0A4F8008038
:10277000E6E713B90EB901B920B132F01E0704D053
:10278000012703E0A4F800C0DAE70027012F0FD0EB
:10279000C2F3001247F2792847F278294FF47A778A
:1027A0004AB142F20F7291421BD9A4F80080C7E7E8
:1027B000A4F80080C4E7BB4203D347F27B2020800B
:1027C000BEE73B2E03D947F27A202080B8E73B29A9
:1027D00002D9A4F80080B3E7632807D9A4F80090D1
:1027E000AEE7B84202D3A4F80090A9E71B4A1268EA
:1027F0004FF4FA78B8FBF2F843445343B3FBF7F3D2
:102800004FF461677843C1EB011100EB8100304464
:1028100000FB0236DEB1FDF737FD07462A46104DB4
:1028200023463146286800F0F3FE218821B138465E
:10283000BDE8F047FDF72CBD286800F01FFB3846C7
:10284000FDF726FDFFF772FA0020208078E7A4F854
:1028500000C075E74C00002080000020B044000854
:10286000E400002008B500F01DF86A460021094880
:10287000FFF7DCFD08490868401E0860002807D102
:102880000648006808606A4600210548FFF7CEFD4B
:1028900008BD000064270020E0000020DC000020CC
:1028A0004828002002480068002800D000477047F0
:1028B0004400002070470000034A00211160034AD1
:1028C000118001807047000050000020540000205B
:1028D000074C084DFDF7D8FC2168491C2160296888
:1028E000491C2960FDF7D4FCFEF748FFF2E7000021
:1028F000480000209000002000B589B00D4A00215A
:1029000011600B22CDE9061208900C4A05910A4885
:102910000B4B126800681B68CDE90132CDE9030159
:102920003F2000900023074A07A10C48FFF786FBD1
:1029300009B000BD4800002084440008804400081D
:102940007C440008D128000875432F4F532D494976
:10295000492049646C65205461736B00E8220020B3
:10296000034A00211160034A118001807047000072
:10297000580000205C000020F0B5164F396800298F
:1029800009D0154A158855B101F110026B1E9EB28F
:10299000002300240FE045F21E710180F0BD45F2D6
:1029A0001D710180F0BD0A604C600C81CC6010315B
:1029B00010325B1C9BB2B342F5D30C604C600C81AF
:1029C000CC6006493A680A608D80CC800C81048016
:1029D000F0BD00009444000890440008A0230020AB
:1029E00010B54289002A12D003680A490C681C609D
:1029F00043680B60CB8844891B1BCB808B88448940
:102A000023448B8000214181818101604160104617
:102A100010BD0000A023002001810021418181819F
:102A2000016041607047000006A1C161002242615F
:102A3000054B1968002903D081614861186070470F
:102A40008261FBE72000000060000020034A0021B3
:102A50001160034A1180018070470000600000206F
:102A6000640000202DE9F0410C4607461946104D40
:102A7000286880F83420002680F8356000F0BCFB20
:102A800064B104F10806FC6001223946286800F0B0
:102A900011F83946304600F07BF802E02868C68716
:102AA000066320462968BDE8F04100F017B8000031
:102AB000E400002010B5C28701630024002309E070
:102AC0004B600B600B614B610B83CB6188602031E5
:102AD000641CA4B29442F3D310BD0000002809D0B6
:102AE0004268C1F8B42000F1080109688968096AE0
:102AF000C161704791F83400022805D0072807D03B
:102B000005A0C1F8B400704704A0C1F8B400704734
:102B100004A0C1F8B4007047200000005461736B3A
:102B2000205100005461736B2053656D000000005C
:102B300007A2C1F8B42000F108010968002903D0F8
:102B40008968096AC161704701A1C16170470000CD
:102B50002000000070B580F83710056BC48F0FE0BF
:102B6000EE6808363089012807D92946304600F03A
:102B700050F82946304600F00BF82035641EA4B208
:102B8000002CEDD170BD00210160416001817047D2
:102B900030B58A6892F8374002890025002A03D0B0
:102BA000521C028102680CE0012202814D600D601E
:102BB0000160416030BD936893F83730A34202D87A
:102BC0005268002AF7D132B1136853B10B604A60E2
:102BD0005960116030BD4D6042680A6051604160CB
:102BE00030BD11600D604A60016030BD70B50646B1
:102BF000356BF48F07E0E8680830294600F009F8E3
:102C00002035641EA4B2002CF5D10020F08730637B
:102C100070BD10B502890024012A0BD00A6862B188
:102C20004B6873B153601A600289521E02814C6076
:102C30000C6010BD04604460F6E74A6814600260EE
:102C4000F2E754604260EFE7F8B5064606980C4696
:102C5000002594F8361008292AD2DFE801F0292946
:102C6000040429292A2A94F83410032910D0226553
:102C7000A4F85430206436B12046FFF7B7FF214650
:102C80003046FFF755FF94F83600032806D008E0D9
:102C900000902146304600F030F8ECE7204600F086
:102CA000FDFC204600F098F83434A570657025705E
:102CB000F8BD94F83410032910D02265A4F85430DC
:102CC000206436B12046FFF791FF21463046FFF7DA
:102CD0002FFF94F83600072806D008E00090214620
:102CE000304600F00AF8ECE7204600F0D7FC04205C
:102CF0003434A07065702570F8BD70B5049D0C6B00
:102D0000C98F0AE0E668864204D1206162612383AC
:102D1000E56170BD2034491E89B20029F2D170BD31
:102D200010B50024064802E02034E4B2001D01681A
:102D30000029F9D00068FDF7B2FA2044C0B210BDF6
:102D4000240000200020044A002142F82010401CEA
:102D50000228FAD37047000024000020410900F047
:102D60001F020120C2F11F029040034B53F82120A3
:102D7000024343F82120704724000020410900F05D
:102D80001F020120C2F11F029040034B53F8212083
:102D9000824343F82120704724000020034A002189
:102DA0001160034A11800180704700006C00002010
:102DB000700000200020074B002200EB400103EBD5
:102DC00081010A810A604A60401CC0B24028F4D3E5
:102DD00070470000AC23002010B5044694F837007B
:102DE000FFF7BCFF074994F837000978884204D1FF
:102DF0002046BDE8104000F025B82046BDE8104050
:102E000000F002B86600002090F837100C4A01EB81
:102E1000410102EB810100230A89002A08D0521CDB
:102E20000A810A68C26003610A681061086070471D
:102E300001220A81C3600361086048607047000096
:102E4000AC23002090F837100B4A01EB410102EB54
:102E5000810100230A89002A07D0521C0A81C3601D
:102E60004A680261D0604860704701220A81C360ED
:102E70000361086048607047AC23002070B50446C9
:102E8000124994F8370000EB400001EB8001206903
:102E9000E2680025002808D00B895B1E0B81C26008
:102EA00092B110612561E56070BD2AB10889401EAC
:102EB000088115610A60F5E70D810D604D6094F899
:102EC0003700FFF75BFFEDE74860EBE7AC2300203E
:102ED00010B504480078012803D1FEF795FA02499D
:102EE000086010BD800000207400002010B50A4862
:102EF000007800280ED1FEF787FA08490968401AC1
:102F000007490A68824200D2086006490A6882427C
:102F100000D2086010BD0000800000207400002076
:102F2000780000207C000020034A00211160034A41
:102F3000118001807047000084000020880000207C
:102F40001CB56F4C6F4D05E0206801AA40000021C0
:102F5000FFF7A2FB28780128F6D101A8FEF7B8FFF9
:102F60004FF0000A684821680068884201D9B0FB28
:102F7000F1FABAF1000F02D10A21B0FBF1FADFF841
:102F80008CB14FF47A7842F210764FF00009A3E04A
:102F90005F48824202D23046012113E05D488242FE
:102FA00002D240460A210DE05B48824202D26420F0
:102FB000642107E05948824202D20A20414601E0DA
:102FC00001203146B2FBF1F15843B0FBF1F0301A69
:102FD00080B2ABF8000052490A88824203D20880CE
:102FE00001E0ABF80060FFF721F80027FDF74CF98E
:102FF0004C4C2568FDF74CF90FE0FDF745F955F805
:10300000901F6960C5F80090FDF742F968680744B1
:10301000FDF73AF92D6AFDF73BF9002DEDD1E7B147
:103020003B48874202D23546012013E039488742A7
:1030300002D245460A200DE03748874202D2642575
:10304000642007E03548874202D20A25404601E065
:1030500001253046B7FBF0F701E000250127FDF719
:1030600013F92468FDF714F91DE0D4F894006843BF
:10307000B0FBF7F080B2B04200D93046A4F880002F
:10308000B4F88210814201D2A4F8820004F1A002B7
:1030900001AB111D2046FFF7E1F9FDF7F5F8D4F873
:1030A000B040FDF7F5F8002CDFD11F480178012969
:1030B00004D180F8009001A8FEF70AFFFEF7A4F9FA
:1030C0000099401A19490A68824200D2086001AA90
:1030D00000215046FFF7E0FAFEF796F90090FDF761
:1030E000D3F81349134C0A682260C1F80090FDF729
:1030F000CFF81148236802689A427FF672AF47E71B
:103100009C4400089C000020B04400088C00002073
:10311000801A060000093D00005A62020084D71799
:103120008E000020A80000208A000020A0000020BF
:1031300090000020980000209400002030B589B055
:103140001C4A002111601C4A11601C4A11601C4A73
:1031500011701C4A11701C4A1268002A0AD01B4BBD
:103160001B4C1B682468A34208D246F62C610180E0
:1031700009B030BD46F62B610180F9E7154C247883
:103180003F2C03D346F62A610180F1E7032508901E
:10319000CDE90615104805910068CDE90042CDE95A
:1031A0000331029000230D4A0DA11248FEF746FF9D
:1031B000DEE700009000002098000020940000202E
:1031C0009C0000208A000020A0440008A8440008B9
:1031D000AC44000898440008A4440008412F0008AB
:1031E00075432F4F532D494949205374617420541E
:1031F00061736B00AC26002010B50446002908D08E
:103200000A462146074800F0C7F9032084F8360033
:1032100002E0022084F836002046BDE81040FFF7A7
:103220002DBE0000C00000200023C0F8AC30064ACC
:103230001168002905D0C0F8B010C1F8AC001060CA
:103240007047C0F8B030FAE7A8000020D0F8AC20F2
:10325000D0F8B0100023002A08D079B1C2F8B0101D
:10326000C1F8AC20AC30436003607047064A11607F
:1032700009B1C1F8AC30C0F8B0307047C2F8B03016
:10328000C0F8AC3070470000A8000020044A0021BC
:103290001160044A1180044A1160018070470000E7
:1032A000A8000020AC000020A400002070B5044657
:1032B00000252560A5606560E56025616561A56103
:1032C000E5611FA020626562A562E562256425654F
:1032D000A4F85450002104F15800FFF79DFBA566A7
:1032E000E5666567A4F87C50A567002004EB8001C3
:1032F0000D67401CC0B20028F8D0343425616566E3
:10330000A566656084F84A502567E5662581656194
:10331000A561A4F84C50A4F84E5025656565FEF7EC
:1033200073F8A065E565656725706570A570402038
:10333000E070A567E56704A0C4F8800070BD0000D8
:103340003F5461736B0000002000000070B504461C
:103350000D46FCF799FF06460021298094F83600B7
:10336000082849D2DFE800F0040404040B1B2937C5
:103370003046FCF78DFF47F25310288038E094F870
:103380007E00401EC0B284F87E0020B984F836105A
:103390002046FFF721FD3046FCF77AFF28E094F83D
:1033A0007E00401EC0B284F87E0010B9012084F86F
:1033B00036003046FCF76CFF1AE094F87E00401EA1
:1033C000C0B284F87E0010B9022084F8360030467E
:1033D000FCF75EFF0CE094F87E00401EC0B284F85B
:1033E0007E0010B9032084F836003046FCF750FF09
:1033F000BDE87040FEF79ABC3046FCF749FF46F640
:103400002D60288070BD000008B504480068FEF7F4
:1034100065FF69460020FEF7CBFE08BDE4000020F2
:103420002DE9F8430446894615461E46FCF72CFF55
:1034300007460CB92748046825640020308094F8BA
:10344000360046F6C55808283BD2DFE800F00404F1
:10345000151504041515656C681C05D06D1C656494
:103460003846FCF715FF33E03846FCF711FFA6F8A5
:1034700000800020BDE8F88394F83400072808D0C5
:10348000656C681C16D06D1C65643846FCF700FF3F
:103490001EE000231A46214618460095FFF7D4FB8C
:1034A000656C3846FCF7F4FE5FEA094010D4FEF77D
:1034B0003DFC0DE03846FCF7EBFEA6F8008000204E
:1034C000D8E73846FCF7E4FE46F62D60308000254C
:1034D0002846CFE7E400002070B504460D46FCF70F
:1034E000D3FE06462A4804B904680068844209D11C
:1034F0002848007830B13046FCF7CAFE46F66350E3
:10350000288070BD0020288094F8361001200829FA
:1035100037D2DFE801F0041019222B2B2B2B0421CA
:1035200084F8361084F87E002046FFF7A7FC30466A
:10353000FCF7AEFE21E0052184F8361084F87E0009
:103540003046FCF7A5FE18E0062184F8361084F812
:103550007E003046FCF79CFE0FE0072184F8361011
:1035600084F87E003046FCF793FE06E014F87E0FE8
:10357000401C20703046FCF78BFEBDE87040FEF723
:10358000D5BB3046FCF784FE46F62D60288070BD22
:10359000E40000208000002030B503680025002BE7
:1035A00001D01C4629E08A644D618D61C8610160CB
:1035B0000121818030BD9C6C94421BD39C6964B115
:1035C0008A648C614B61C8619D6CAA1A9A64996186
:1035D00061618188491C818030BD8A648D614B6145
:1035E000C8619C6CA21A9A64996101608188491C27
:1035F000818030BD121B1C465B69002BDBD18A64C5
:103600008C614D61C86161618188491C818030BDD8
:103610002DE9F0411C461F4BDFF8748000271B6822
:1036200047F27E2C042A04D0082A0BD059B30A464C
:1036300016E0CA1A424500D892B98764A4F800C0BF
:10364000BDE8F081C56C5E1B8E4203D90A46194461
:10365000C16405E08A1B42450BD852B12944C164BC
:10366000012180F8361001460B48FFF795FF2780AF
:10367000E6E7B6FBF1F201FB02521144C164876434
:10368000A4F800C0DCE78764A4F800C0D8E7000015
:103690000000FFFFB0000020B800002030B5C26974
:1036A000836941690024002B0ED0596121B18B61DF
:1036B0008B6C856C2B448B6484619188491E91804E
:1036C00044618464C46130BD61B18C618B6C856C74
:1036D0002B448B6411609188491E918044618464FD
:1036E000C46130BD146094808464C46130BD70478F
:1036F0002DE9F047FCF7C8FD8146FDF785FE8046C1
:103700000026184D2C6804B3A06C401EA06400274E
:1037100018E0761CB6B294F83600012802D00528CD
:1037200006D008E084F836702046FFF755FB02E02B
:10373000042084F8360064692C608CB1A888401E8F
:10374000A880A761A06C0028E3D0EE80FDF75CFEA6
:10375000A0EB08044846FCF79BFD2046BDE8F08737
:10376000AF80F2E7B80000202DE9F047FCF78CFDB0
:103770008246FDF749FE81460026264D2C68E4B3BB
:10378000A06C401EA0644FF00308002732E0761CB6
:10379000B6B294F83600032802D0072813D022E0EE
:1037A0002765A4F85470FDF72FFE20642046FFF72C
:1037B0001DFA2046FFF710FB84F8367084F8358038
:1037C00084F834700FE02765A4F85470FDF71CFEF0
:1037D00020642046FFF70AFA042084F8360084F8B3
:1037E000358084F8347064692C608CB1A888401EE0
:1037F000A880A761A06C0028C9D0EE80FDF704FE68
:10380000A0EB09045046FCF743FD2046BDE8F087D5
:10381000AF80F2E7C00000201CB5114E114D124CD4
:10382000002101AB6A460846FEF760FDBDF80400C2
:103830000028F5D130780128F2D1FCF725FD296860
:10384000491C2960FCF724FDFFF752FF0746FFF7EC
:103850008BFF384421688142E2D22060E0E700001B
:103860004D000020B0000020B400002030B589B029
:103870001C4A002111601C4A11601C4B1960918088
:10388000D1809980D9801A4A1268002A0AD0194B2F
:10389000194C1B682468A34208D247F21321018007
:1038A00009B030BD47F212210180F9E7134C2478AA
:1038B0003F2C03D347F211210180F1E70B2508903B
:1038C000CDE906150E4805910068CDE90042CDE925
:1038D0000331029000230B4A0BA11048FEF7AEFB08
:1038E000DEE70000B0000020B8000020C00000208B
:1038F000B8440008C0440008AC440008B4440008C0
:10390000BC4400081938000875432F4F532D49490E
:1039100049205469636B205461736B006427002055
:1039200030B589B00446294800250560284805605F
:103930002848058028482A4A016828480029006844
:1039400003D0B0FBF1F0106003E00A21B0FBF1F00E
:10395000106024491068086023480560234805600A
:10396000224623A12648FEF737F8208800280BD1ED
:103970002448006850B12449244A096812689142D9
:1039800008D247F24830208009B030BD47F24730B6
:103990002080F9E71E4A12783F2A03D347F24630C7
:1039A0002080F1E70B23CDE906531A4B05950894C7
:1039B0001B68CDE90315CDE9010300920023164AE7
:1039C00016A11C48FEF73AFBDEE70000C800002005
:1039D000D0000020CC000020C8440008B0440008FB
:1039E000DC000020E0000020D8000020D4000020EF
:1039F0004F5320546D72204D75746578000000009F
:103A00001C280020CC440008D4440008AC44000822
:103A1000C4440008D0440008553A000875432F4FAD
:103A2000532D4949492054696D6572205461736B67
:103A300000000000482800200EB502A800220090D7
:103A400001AB11460148FDF7FFFF0EBD1C28002009
:103A5000704700001CB51F4EDFF87C801F4F00210F
:103A600001AB6A460846FEF741FCFFF7E5FFFDF7AC
:103A7000CBFC81463068401C3060D8F8004019E02B
:103A800001A8FEF791F92569A069401EA06168B9F7
:103A9000A08C02281BD0204600F022F8032084F8D6
:103AA0002600A26812B12046E16890472C4601A882
:103AB000FEF7A8F9002CE3D1FDF7A6FCA0EB090462
:103AC00000F02CF83868A042C9D23C60C7E7206AF1
:103AD000A061E6E7D8000020D0000020D40000203C
:103AE00010B50C4A002301691468844203D11160A7
:103AF00029B14B6103E04269116101B14A610121C1
:103B000080F826100361436103480188491E018043
:103B100010BD0000D0000020CC00002008B56A468F
:103B200000210248FEF76AF808BD00001C280020AA
:103B3000054A002903D011680143116070471168DC
:103B4000814311607047000030380240054A002967
:103B500003D01168014311607047116881431160FF
:103B6000704700004438024070B5244B196801F0DA
:103B70000C01234C00291ED0224E04291DD00829F7
:103B80001DD00460196801F0F00109091E4A545C57
:103B90000168E14041601C6804F4E054A40A145D2B
:103BA00021FA04F484601B6803F460435B0BD25C6D
:103BB000D140C16070BD0460E4E70660E2E70F4AEF
:103BC000121F1168C1F38055116801F03F0135B132
:103BD000B6FBF1F11468C4F38814614305E0B4FB4B
:103BE000F1F11468C4F3881461431268C2F301420E
:103BF000521C5200B1FBF2F10160C3E708380240E9
:103C00000024F40040787D0104000020704700008B
:103C10000CB50022019200922749086840F48030D8
:103C200008604FF4A043086800F400300090019849
:103C3000401C0190009810B901989842F3D108688F
:103C4000800302D50120009000E000920098012836
:103C500031D119484030026842F080520260174862
:103C6000026842F440420260134808300268026071
:103C7000026842F400420260026842F4A05202600C
:103C8000021F0F4B13600A6842F080720A600A68D4
:103C90009201FCD50B4A40F205711160016821F0D8
:103CA00003010160016841F0020101600168C1F394
:103CB00081010229FAD10CBD003802400070004099
:103CC00019544007003C02404FF0E021042804D082
:103CD000086920F0040008617047086940F004009A
:103CE0000861704710B506480078012807D1FDF734
:103CF0000DFEFEF7B7FDBDE81040FDF717BE10BD85
:103D00004D00002010B51248016841F470010160B7
:103D10001048016841F0010101600E4A002108329B
:103D2000116002680C4B1A400260031D0B4A1A60B6
:103D3000026822F48022026006480C300160FFF71E
:103D400067FF03494FF000608039086010BD000034
:103D500088ED00E000380240FFFFF6FE103000243E
:103D600070B5FDF7D3FD174C40F22551204600F009
:103D700042F8F8B1204600F0D7F8C1B2124A1088D4
:103D8000030417D444044FF0000307D50A2901D0D7
:103D900013800FE040F4004010800BE00D290DD09F
:103DA0000A4DC0F30D042955401C80B21080C7286D
:103DB00000D91380BDE87040FDF7B8BD40F48040E5
:103DC0001080F7E70010014018000020D0110020FB
:103DD000002904D0818941F4005181817047818993
:103DE00021F40051818170470246002012880A4266
:103DF00000D00120704770B5002440F66A12C1F36C
:103E0000421301F01F05012606FA05F2012B0CD022
:103E1000022B0DD0838A1340090A8E40008830405F
:103E20000BB100B10124204670BD83891340F3E734
:103E3000038A1340F0E710B540F66A13C1F342134A
:103E400001F01F040121A140012B07D0022B07D054
:103E500014303AB102680A43026010BD0C30F8E732
:103E60001030F6E702688A43026010BD7FB5044651
:103E70000D46208A20F44051E88808432082A0891A
:103E800041F20C618843A9882A8911436A89024357
:103E90001143A181A08A20F44071A8890843A0821F
:103EA0006846FFF761FE1E48844202D01D488442E6
:103EB00001D1039800E00298A189090408D500EB1C
:103EC000C00101EB001029684900B0FBF1F007E0E8
:103ED00000EBC00101EB001029688900B0FBF1F094
:103EE0006422B0FBF2F109010B096FF018056B4376
:103EF00000EB8300A3891D044FF0320307D503EBC9
:103F0000C000B0FBF2F000F00700084306E003EB4E
:103F10000010B0FBF2F000F00F00084320817FBDDD
:103F200000100140001401408088C0F30800704771
:103F3000FEE703B401984100009850EAC12018BF81
:103F400004204A0D18BF40F0010040F2FF72B2EBAE
:103F5000515F08BF40F00200012808BF052002B0F1
:103F6000704730380A2801D201207047002070477E
:103F70007047000010B504466FF00400FFF7A4FE80
:103F80000C4BE00818700C490C4A0968B2FBF1F2BE
:103F900042434FF47A70B0FBF1F058804FF0E020CC
:103FA000016941F0020101614261016941F00101D1
:103FB000016110BD14000020B044000840420F0011
:103FC00070B504460D48007800280FD00C480078E2
:103FD00060B90C4D6888844203D3B4FBF0F000F064
:103FE0001DF86888B4FBF0F100FB11444FF47A70BF
:103FF0006043BDE8704000F017B800004D0000209D
:104000004C0000201400002008B56846FDF7CCFEE7
:1040100008BD08B56846FDF7F5FE08BD08B56A4657
:104020000821FEF739FB08BD2DE9F04100244FF0CF
:10403000E0277E6905460C4800784543FFF7E4FF1A
:10404000BA69B9699142FCD003D2A2EB01000444E1
:1040500003E0A6EB0100104404440A46AC42F0D34E
:10406000BDE8F041FFF7D5BF140000202DED028B15
:104070000F4C9FED108A4FF4FA7594ED000A30EE64
:10408000080A84ED000AFCF7FFF80646206800F0F5
:104090007DF941EC100B08A053EC102BFCF70CF948
:1040A0003046FCF7F5F82846FFF78AFFE5E7000001
:1040B000000000200AD7233C666C6F61745F6E7548
:1040C0006DB5C4D6B5CEAA3A20252E34660D0A00A9
:1040D00003490A885206FCD5C2B28A8070470000A4
:1040E000001001400EB5002502AC4FF4FA76012015
:1040F000FDF738FA0022CDE90054C82311461046D6
:10410000FEF712FB0120FDF7FDF90022CDE9005476
:10411000334611461046FEF707FBE8E70EB50025CB
:1041200002AC4FF4FA760220FDF74CFA0022CDE9FA
:104130000054334611461046FEF7F6FAF3E7000046
:104140008AB0A820FFF716FF4FF4A060FDF70AFB26
:104150004FF4E13000F0A4F8FDF7B4F909A8FDF739
:1041600015FBFCF791F80446002109AB03220591E9
:10417000CDE90723069133230A4DCDE9015300927F
:104180004FF40070CDE903010B46074A07A1A5F1E2
:10419000B800FDF753FF2046FCF77AF809A8FDF7B1
:1041A00069FEFEE7A8010020B9410008737461723E
:1041B00074207461736B00002DE9F0438BB0FDF740
:1041C000E3F80AA8FDF7E0FEFCF75EF8814600245C
:1041D0000326CDE9064621480190059480274FF03B
:1041E0000C080420CDE9028700901C480AAD089510
:1041F000049423461A4A1BA1B838FDF71FFFCDE9E6
:1042000006461B48019005940520CDE902870090E1
:104210001748089504940023164A17A1B838FDF7EB
:104220000DFFCDE906461748019005940620CDE91B
:10423000028700901348089504940023124A13A1A2
:10424000B838FDF7FBFE0AA91448FFF745F94846C0
:10425000FCF71EF80BB0BDE8F0830000600A0020F8
:10426000E54000086C656431207461736B000000E8
:10427000180D00201D4100086C65643220746173C4
:104280006B000000D00F00206D400008666C6F616D
:10429000742074657374207461736B00F0000020E7
:1042A000F0B587B0064601210846FFF741FC012121
:1042B0001020FFF74BFC254F072209213846FDF758
:1042C000E8F807220A213846FDF7E3F84FF4C0600A
:1042D000059002208DF818008DF8190000248DF843
:1042E0001A4001258DF81B5005A93846FDF793F8B3
:1042F0000196ADF80840ADF80A40ADF80C40ADF8B5
:1043000010400C20ADF80E00114C01A92046FFF71B
:10431000ADFD01212046FFF75BFD012240F2255152
:104320002046FFF788FD25218DF8001003218DF828
:1043300001108DF802108DF803506846FDF7DEF984
:1043400040212046FFF750FD07B0F0BD00000240BD
:104350000010014010B500290AD00878002807D0C5
:1043600005487844FCF7AAFB002801D0002010BDC6
:104370000248784410BD00002A020000220200001A
:104380000808A0F500114FEA3101704743004FEAD9
:10439000D30C4FEA3C0C43401FBF40070CF1605167
:1043A00013F0FE4F70471CF0006F03D100200CF09B
:1043B000004170470CF0004343EA507010B540EAEA
:1043C000CC0000F00EF800BF000000924FEA0001A0
:1043D000FFF7D6BF4FF000414FF00000A1F50021DC
:1043E00070470EF1020E2EF0030E5EF8044B2442CD
:1043F00004D44FEA4102B2F17F4F11D84FEA400393
:10440000B3F17F4F0CD80ED14FEAD07CB2F17F4F81
:104410000CEB4C0C0CF1020C08BF4CEBD17C04E013
:104420004FF0080C01E04FEAD17C0CEB4C0324FA6E
:1044300003F404F00704B4F1040C06D20EEB840C70
:10444000BDE810404CF0010C6047DFE80CF00708B5
:1044500002024FF00040A0F5800010BD0846420067
:1044600018BFD2F1807288BF00F0004010BD4FF03D
:104470004070E1EE100A7047FCF78EB8A8120020D9
:104480000C00000080000000A81400208000000044
:1044900064000000A81600203E0000000A00000092
:1044A000E81C00200C00000080000000400000001C
:1044B000C800000001000000E81E00200C00000001
:1044C000800000000200000064000000E8200020DE
:1044D0000C0000008000000002400000000000A06E
:1044E0000000000005400000000000C800000000BF
:1044F0000C4000000000409C00000000194000003B
:104500000020BCBE0000000034400000BFC91B8E6C
:1045100000000004B5400000504BCFD06607E2CF4A
:10452000010000006C4100003E8251AADFEEA7347A
:1045300001000000D9420000DCB5A0E23A301F972C
:10454000FFFFFFFFB4450000FD25A0C8E9A3C14F50
:10455000FFFFFFFFFF3F00000000008000000000A1
:10456000FF3F00000000008000000000A845000898
:1045700000000020F0000000C40100089846000878
:10458000F0000020702E0000E00100081C00000078
:1045900043000000F8FFFFFF0C0000000E000000C9
:1045A0000F0000002E0000000AD7233C000000008E
:1045B00001020304010203040607080900000000C9
:1045C00000000000000000000000000000000000EB
:1045D00000000000000000000000000000000000DB
:1045E00000000000000000000000000000000000CB
:1045F00000000000000000000000000000000000BB
:1046000000000000000000000000000000000000AA
:10461000000000000000000000000000000000009A
:10462000000000000000000000000000000000008A
:10463000000000000000000000000000000000007A
:10464000000000000000000000000000000000006A
:10465000000000000000000000000000000000005A
:10466000000000000000000000000000000000004A
:10467000000000000000000000000000000000003A
:10468000000000000000000000000000000000002A
:08469000000000000000000022
:040000050800018965
:00000001FF
