:020000040800F2
:10000000101700204102000885140008451400085C
:100010008114000861130008532900080000000043
:100020000000000000000000000000009125000812
:100030006513000800000000D1020008A92600088E
:100040005B0200085B0200085B0200085B0200081C
:100050005B0200085B0200085B0200085B0200080C
:100060005B0200085B0200085B0200085B020008FC
:100070005B0200085B0200085B0200085B020008EC
:100080005B0200085B0200085B0200085B020008DC
:100090005B0200085B0200085B0200085B020008CC
:1000A0005B0200085B0200085B0200085B020008BC
:1000B0005B0200085B0200085B0200085B020008AC
:1000C0005B0200085B0200085B0200085B0200089C
:1000D0005B0200082D2700085B0200085B02000895
:1000E0005B0200085B0200085B0200085B0200087C
:1000F0005B0200085B0200085B0200085B0200086C
:100100005B0200085B0200085B0200085B0200085B
:100110005B0200085B0200085B0200085B0200084B
:100120005B0200085B0200085B0200085B0200083B
:100130005B0200085B0200085B0200085B0200082B
:100140005B0200085B0200085B0200085B0200081B
:100150005B0200085B0200085B0200085B0200080B
:100160005B0200085B0200085B0200085B020008FB
:100170005B0200085B0200085B0200085B020008EB
:100180005B0200085B02000800F002F800F049F88A
:100190000AA090E8000C82448344AAF10107DA45E2
:1001A00001D100F03EF8AFF2090EBAE80F0013F0EB
:1001B000010F18BFFB1A43F001031847103200006B
:1001C00030320000103A24BF78C878C1FAD85207FC
:1001D00024BF30C830C144BF04680C6070470000C1
:1001E0000023002400250026103A28BF78C1FBD840
:1001F000520728BF30C148BF0B607047662903F023
:100200001880002070471FB503F009F800F056FB76
:1002100004000020002102F063FDE0601FBD10B566
:1002200010BD00F067FC1146FFF7EDFF02F0B8FCCF
:1002300000F085FC03B4FFF7F2FF03BC02F0AAFB59
:100240000948804709480047FEE7FEE7FEE7FEE76A
:10025000FEE7FEE7FEE7FEE7FEE7FEE704480549A6
:10026000054A064B70470000C526000889010008B2
:100270001011002010170020101300201013002070
:10028000EFF3108072B6704780F310887047264CE9
:100290004FF6FF7525604FF0000484F30988234C66
:1002A0004FF001052570224C4FF08055256062B655
:1002B000FEE730B41E4C4FF08055256030BC7047CF
:1002C00030B41B4C4FF08055256030BC704700BFE8
:1002D00072B6EFF3098050B11EF0100F08BF20ED89
:1002E000108A203880E8F00F12490968086000B5CC
:1002F000114880475DF804EB104811490A780270F4
:100300000C4810490A680260106890E8F00F20302D
:100310001EF0100F08BFB0EC108A80F309884EF071
:10032000040E62B6704700BF22ED00E046000020D8
:1003300004ED00E04C000020F11C00083B00002010
:100340003C00002054000020704700000FB4044916
:1003500010B503AA029800F09FFA10BC5DF814FBD8
:10036000180000202DE9F0474FF0000A89460446A6
:10037000C0F820A02046E1688847002876D02528CC
:1003800006D0D4E901219047206A401C2062F1E7A1
:10039000E168204600258847C4F81CA006460027CF
:1003A000C4F818A02A2E09D0304602F0ECFA38B36F
:1003B00004EB8708303EC8F8186019E059F8041BB0
:1003C000204604EB87029161E1688847012F0646C9
:1003D00018D1E069002820DA25F020051DE0D8F8C2
:1003E000180000EB800006EB40003038C8F8180019
:1003F0002046E1688847064602F0C5FA0028EED19B
:10040000012F0AD02E2E08D12046E16888477F1C94
:100410000646022F45F02005C4DBA069002803DA58
:10042000404245F00105A061E80701D025F0100524
:10043000B6B1A6F14100192802D8203645F400656E
:100440004A463146204625604D46FFF7D7FE58B153
:10045000012806D0ED1D25F0070000F1080989E705
:1004600004E005F1040985E730468AE7206ABDE823
:10047000F087704770477047704770472DE9FF4F0E
:100480000C461E464FF0FF378BB0D2E90001DDF875
:1004900060800A908A46C1F30A5505B93D4600219D
:1004A00008464FF00000BAF1000F00F4400005DAF2
:1004B00000EB80004FF4400101EA50004FEA9059F0
:1004C000B9F1010F00DDB9460A9850EA4A000ED092
:1004D00044F61050A5F2FF3545432F14B8F1000F34
:1004E0001ED07542291E1EDDC9F100021CE0B8F1C4
:1004F000010F4FF0000001D0302103E0F24305E08E
:100500002154401CB042FBDB304600220021215424
:100510000B99C1F80880C1E900200FB0BDE8F08F49
:10052000BD1B6D1CDEE74A4600DA694206A800F0F2
:1005300067FA06AB93E8070003AB83E80700504671
:100540000A9900F045FB8DE80700A0F500501F3820
:1005500000900398002D0ADD42F21F014A4608442C
:10056000002303A90390684600F0AEFD09E0A0F562
:1005700000504A461F38002303A90390684600F044
:10058000B8FD8DE807000004000C03D04FF0FF30E9
:10059000410800E01046B8F1000F03D0002200929D
:1005A00015461EE0751E05D400F08CF930326255F8
:1005B0006D1EF9D5B3460122084302D000227F1CEC
:1005C00004E02078302801D100227F1E002A0997FC
:1005D00084D01DE0112D07DA00F074F93032625535
:1005E0006D1C50EA0102F5D1084302D00098C8B151
:1005F0000EE00021681E05E0235C625C6354225417
:10060000401E491C8142F7DBAB46A81B401E0990E7
:10061000002004F80B000B98099AC0F80880C0E984
:10062000002B7AE711264FF0000857E72DE9F04F2D
:1006300088460446D21D22F0070191B0D1E900019D
:10064000CDE90A0102F087F902460B98C00F01D0EC
:100650002D2007E02068810701D52B2002E0202112
:1006600001EAC000032A099001D0072A05DB0346EE
:100670004146204600F084F90BE12078800601D540
:10068000E06900E00620B8F1650F814606D0B8F1B8
:10069000660F18D0B8F1670F70D131E00020B9F1C2
:1006A000110F009001DB112301E009F101030AAAF7
:1006B00001A90CA8FFF7E2FEDDE90C70002609F1A4
:1006C0000105834647E001204B4600904FF000476C
:1006D0000AAA01A90CA8FFF7D1FEDDE90DB00C991B
:1006E0005D46002610B909F101000D18B9EB0500AF
:1006F00003D4C0F1FF3609F10105A5EB09002BE099
:10070000B9F1010F01DA4FF001090020B9F1110F21
:100710000090484601DD112300E003460AAA01A922
:100720000CA8FFF7ABFEDDE90C704D4600268346B2
:10073000207800070AD4AB4500DA5D4601A8012DF8
:1007400004DD411911F8011C302907D04F4502DAA8
:1007500017F1040F04DA012082460FE06D1EEEE768
:10076000002F02DCED1B3E4403E0781CA84200DDB4
:100770007D1CB81B00F1010A4FF0004720780007EC
:1007800003D4AA4501DB4FF0FF3A0021B7F1004F37
:100790000DF143088DF8431024D002202B23002FA5
:1007A00001DA7F422D230A21021EA0F1010000DCA4
:1007B0005FB197FBF1FC97FBF1F201FB1C7C174644
:1007C0000CF1300C08F801CDEEE7A8F10100037040
:1007D0002188090501D5452100E06521A0F1010826
:1007E00000F8011C09980FA9A1EB0807FF1D00B133
:1007F0000120411901EBEA70A1693844081A401E32
:10080000A0612078C00602D42046AFF3008009988A
:1008100028B1D4E901219047206A401C2062207849
:10082000C00622D52046AFF300801EE0002E04DB78
:10083000B34502DD01A8805D00E03020D4E901214C
:100840009047206A401C2062761CAAF101005FEAF2
:10085000000A0AD100F032F8C0680168405CD4E9AF
:1008600001219047206A401C2062281EA5F1010545
:10087000DCDC07E0D4E9012118F8010B9047206A7D
:10088000401C2062381EA7F10107F3DC2046AFF3BD
:100890000080032011B041E6074B70B50D467B4444
:1008A00000F05BF80446284600F01CF910B14FF048
:1008B000FF3070BD204670BD8B220000004870479D
:1008C000D010002030B5B0F10A024FEA900E71F15D
:1008D00000034EEA817EB0EB0E0061EB91014FEA1E
:1008E000101E4EEA017E10EB0E0041EB11114FEA93
:1008F000102E4EEA016E10EB0E0041EB11214FEA73
:10090000104E4EEA014E10EB0E0041EB1141401823
:1009100041F100014FEAD00040EA41704FEAD101B5
:1009200010EB80054FEA810444EA907444EB010423
:100930006D1944EB0404521BA3414FF0000348BF60
:100940000A3200D530BD401C41F1000130BD00002D
:1009500001694A1C02610878704700B58FB0CDE983
:1009600001310021059105497944CDE90310114673
:100970006846FFF7F7FC0FB000BD0000E5FFFFFF82
:100980002DE9F0411F46044603260168072A01F4B9
:10099000006004DB08B116A505E016A503E008B168
:1009A00015A500E015A521F010002060A069C01E6B
:1009B000A0610FB1401EA0612046AFF300804FB18F
:1009C000D4E9012138469047206A401C2062C01CAF
:1009D000206206E0206AFAE7D4E9012115F8010B4C
:1009E0009047761EF8D22046AFF30080BDE8F08134
:1009F0004E414E006E616E00494E4600696E6600C3
:100A00002DE9F047814616468AB0354878440DC82E
:100A10008DE80D0032487844801C03AC0DC884E892
:100A20000D0041F69B300844372190FBF1F290FB1A
:100A3000F1F5A5F1800501FB12041B3C02D56442CF
:100A4000012000E00020DFF898A080460027FA444B
:100A5000AAF1BE0A0EE0E0070AD03246684607EB6C
:100A6000470101230AEB810100F043FB8DE80700F9
:100A700064107F1C002CEED1194F7F44AE3F19E06B
:100A8000E80715D007EB04100DF1180A90E80E00E6
:100A90008AE80E00C068F04201D1981908903246E9
:100AA000012306A903A800F024FB03AB83E8070099
:100AB0006D10641C002DE3D14FF0010332466946EE
:100AC000B8F1000F03A802D000F0FEFA01E000F038
:100AD00010FBC9E90001C9F808200AB0BDE8F08799
:100AE000A4290000007B00F0800070470048704798
:100AF000B01000207546FFF7F9FFAE4605006946C5
:100B0000534620F00700854618B020B5FFF7A6FB36
:100B1000BDE820404FF000064FF000074FF00008FE
:100B20004FF0000B21F00701AC46ACE8C009ACE87F
:100B3000C009ACE8C009ACE8C0098D46704710B5E3
:100B40000446AFF300802046BDE81040FFF772BBBB
:100B50004FF0013C50F8042B51F8043B9A4221D14C
:100B6000A2EB0C03934313EACC1317D150F8042BD8
:100B700051F8043B9A4215D1A2EB0C03934313EABC
:100B8000CC130BD150F8042B51F8043B9A4209D1F5
:100B9000A2EB0C03934313EACC13DBD04FF000001D
:100BA000704700BFD01A01BAB1FA81F101F0180103
:100BB00022FA01F0CB40C1F12001DBB2C0B2C01A71
:100BC0002CFA01F3D11A914311EAC311E6D170470F
:100BD0005FEA400C08BF91F0000F4FEA8C234FEA08
:100BE000C12243EA51514FEA1C5018BF00F5F040B2
:100BF0004FEA300018BF41F000415FEA6C5C00F042
:100C00002980BCF1FF3F08BF40F080407047130CC3
:100C100006BF12044FF0100C4FF0000C130E04BF6F
:100C200012020CF1080C130F04BF12010CF1040C9A
:100C3000930F04BF92000CF1020CD30F04BF5200BB
:100C40000CF1010C11464FF00002A0F11F00A0EBC7
:100C50000C00704711F0004F08BF704731F00041A1
:100C60003FF4D5AF0B0C06BF09044FF0100C4FF04A
:100C7000000C0B0E04BF09020CF1080C0B0F04BF93
:100C800009010CF1040C8B0F04BF89000CF1020C5C
:100C9000CB0F04BF49000CF1010CCCF12003A0EBF9
:100CA0000C0022FA03F302FA0CF241EA030100F10C
:100CB0000100704720F07F4C80EA030023F07F475B
:100CC000ACEB070303F57C5300F0004003F1FF0396
:100CD0002DE980494FEA154B09B44FEA144325EA40
:100CE0000B4E24EA03480FF2042606EB13274908AB
:100CF0003E785FEA320203FB0667C7F5000707FB91
:100D000006F64FEA54374FEAD64606F1020607FBCD
:100D1000066CCCF1005C4FEA1C472CEA074C07FB41
:100D200006F40CFB06F504EB15464FEA961634BFA5
:100D300000204FF000404FEAD13706FB07FC4FEA96
:100D40001C4C0CFB0BF7D21B03FB0CF761EB0701F0
:100D50000CFB0EF7B0EB074072EB17420CFB08F7E9
:100D600034BFA2EB0742B2EB074261EB17414FEAF7
:100D70000C444FEA910706FB07FC4FEA1C4C0CFBA6
:100D80000BF7B0EBC74072EB573203FB0CF734BFE5
:100D9000A2EBC742B2EBC74261EB57310CFB0EF737
:100DA000B0EBC70072EB57720CFB08F734BFA2EB35
:100DB000C702B2EBC70261EB5771039F4FEA816133
:100DC00041EA921104EBCC044FEAD1374FEA826238
:100DD00006FB07FC42EA90124FEA80604FEA1C4C87
:100DE0000CFB0BF7D21B03FB0CF761EB07010CFBB1
:100DF0000EF7B0EB074072EB17420CFB08F734BF5D
:100E0000A2EB0742B2EB074261EB17414FEA8C5568
:100E10004FEA910704EB9C2406FB07FC4FEA1C4CAD
:100E20000CFB0BF7B0EBC74072EB573203FB0CF730
:100E300034BFA2EBC742B2EBC74261EB57310CFBA8
:100E40000EF7B0EBC70072EB57720CFB08F734BF1C
:100E5000A2EBC702B2EBC70261EB577115EB4C2551
:100E60004FEA816141EA92114FEA82624FEAD1373B
:100E700042EA901206FB07FC44F100044FEA80604E
:100E80004FEA1C4C0CFB0BF7D21B03FB0CF761EB7E
:100E900007010CFB0EF7B0EB074072EB17420CFB9F
:100EA00008F734BFA2EB0742B2EB074261EB1741F0
:100EB00015EB1C154FEA813141EA92414FEA82322B
:100EC00042EA90424FEA80304FEA0C7644F1000447
:100ED00048EA03434EEA0B484FF0000EB2EB080C11
:100EE00071EB030724BF624639464EEB0E0E4FF0FE
:100EF000000B0018524149414BEB0B0BB2EB080CB5
:100F000071EB03077BF1000B24BF624639464EEBC1
:100F10000E0E4FF0000B0018524149414BEB0B0BEA
:100F2000B2EB080C71EB03077BF1000B24BF6246A8
:100F300039464EEB0E0E51EA020718BF46F0010685
:100F400016EB0E7655F1000254F1000103D5BDE811
:100F50008901BDE80088BDE88901BDE80048B619EF
:100F6000524141EB0101A3F10103704780807F7E74
:100F70007D7C7B7A7978777676757473727171700F
:100F80006F6E6E6D6C6C6B6A6A69686867666665C1
:100F90006464636362616160605F5F5E5E5D5D5C4F
:100FA0005C5B5B5A5A5959585857575656555555C0
:100FB0005454535352525251515050504F4F4F4E20
:100FC0004E4D4D4D4C4C4C4B4B4B4A4A4A4949496E
:100FD00048484847474747464646454545444444B0
:100FE000444343434342424242414141002B9C46D9
:100FF00030D477002BD01CB54FEA370703B44FF03D
:1010000010004FF01001BAF1000F06D0BCF1000F34
:10101000DCBF40F0080040F008014FF000000FBCBA
:10102000BDE810400BF1010BBBF1010F08BF5FEAF7
:10103000170722BF12F1010211F101014FF0004127
:1010400043F1000300F0004043EA00007047F9D389
:101050005708D0E746EA064613F1400F4FEA164616
:101060001FDD13F1200FDFBF16430A460021203396
:101070005B42BED0C3F1200746EA064602FA07F7F4
:101080004FEA164646EA0706C3F1200722FA03F2A2
:1010900001FA07F721FA03F14FF0000342EA0702D1
:1010A000A7E746EA020646EA06464FEA164646EA39
:1010B0000106BCBF46EA0646360C4FF000034FF06F
:1010C00000024FF0000194E72DE9804C9A469346C8
:1010D00070B491E8380007C831EA400C48BF34EAE0
:1010E000430C03D5FFF7E6FDFFF780FFF0BCBDE83A
:1010F000008C2DE9804C9A46934670B491E83800F4
:1011000007C810F0804F08BF13F0804F03D100F0E4
:1011100005F8FFF76BFFF0BCBDE8008C20F07F47BF
:1011200080EA030023F07F4C07EB0C03A3F57C530C
:1011300000F00040A3F1FE0392F0000F00F0B38036
:1011400095F0000F00F077802DE901494FEA11403A
:101150004FEA144621EA004800FB06FC24EA064751
:1011600008FB06F607FB08F800FB07F718EB064834
:101170004CEB164C4FEA124B18EB07484FEA15465A
:101180004CEB174022EA0B4E0BFB06FC25EA064708
:101190000EFB06F607FB0EFE0BFB07F71EEB064EDB
:1011A0004CEB164C4FF000061EEB074E4CEB174B6A
:1011B00018EB0B0840F1000018EB0E0B58EB000881
:1011C00040F100008F1A4FF000013CBFC943661B7D
:1011D00014BFB5EB040C00213CBFC943F61B4FEA1A
:1011E00017444EEA8E0E27EA04454FEA1C4704FBDB
:1011F00007622CEA074C05FB07F70CFB05F604FB1E
:101200000CFC16EB074642EB174216EB0C4642EB82
:101210001C421BEB060658EB0202414146EA9E06C1
:1012200001D5BDE80189B619524141EB0101A3F195
:101230000103BDE801894FEA14454FEA114724EA4A
:10124000054621EA074C05FB07F406FB07F70CFBF4
:1012500006F105FB0CFC11EB074144EB17444FEA88
:10126000124711EB0C4144EB1C4422EA074C05FBEE
:1012700007F206FB07F70CFB06F605FB0CFC16EB6A
:10128000074642EB174216EB0C4642EB1C456A1828
:1012900054F1000148BF7047B619524141EB0101BA
:1012A000A3F10103704795F0000F37D04FEA1142C8
:1012B0004FEA144721EA024624EA074C02FB07F1F1
:1012C00006FB07F70CFB06F402FB0CFC14EB0744CF
:1012D00041EB17414FEA154714EB0C4441EB1C411D
:1012E00025EA074C02FB07F506FB07F70CFB06F6A1
:1012F00002FB0CFC16EB074645EB174516EB0C46BC
:1013000045EB1C42121951F1000148BF7047B61954
:10131000524141EB0101A3F1010370474FEA14452B
:101320004FEA114724EA054621EA074C05FB07F17D
:1013300006FB07F70CFB06F24FF0000605FB0CFC62
:1013400012EB074241EB174112EB0C4251EB1C41EF
:1013500048BF7047921841EB0101A3F101037047A8
:1013600000BFFEE77047F0B50A46002100230024C5
:1013700000BF3DE0012505FA01F3156805EA030405
:101380009C4234D105684F000326BE40B54305603A
:1013900015794E00B5400668354305601579012D75
:1013A00002D01579022D16D185684F000326BE4064
:1013B000B543856055794E00B540866835438560F4
:1013C000456801268E40B5434560456896798E4054
:1013D000B6B235434560C5684F000326BE40B543ED
:1013E000C560D5794E00B540C6683543C560491C17
:1013F0001029BFD3F0BDF0B5002300244D07ED0E3A
:1014000002FA05F3CE1000F1200555F826504E07DC
:10141000F70E0F26BE40B543CF1000F1200646F868
:101420002750CE1000F1200555F8265045EA030458
:10143000CE1000F1200545F82640F0BD41837047ED
:101440000183704700BFFEE71CB50121102001F0A9
:101450000BF84FF46040009001208DF8040000204C
:101460008DF8060003208DF8050001208DF8070097
:1014700069460248FFF777FF1CBD000000100240DC
:1014800000BFFEE77047000070B5002100230F2267
:10149000C4781CB3174C246804F4E064C4F5E06419
:1014A000C4F30721C1F10404E3B20A4144789C402B
:1014B000E1B28478144021430C07210E0E4C0578CC
:1014C0006155047804F01F050124AC4005786D11C6
:1014D000AD0005F1E025C5F8004109E0047804F00D
:1014E0001F050124AC40054D0678761145F82640CD
:1014F00070BD00000CED00E000E400E080E100E0E1
:1015000002490143024A1160704700000000FA05D9
:101510000CED00E010B500F013F800F01DFD00F038
:1015200045FD00F065FD00F0EDFC00F0ADFC00F0C5
:10153000F9FD00F09DFD00F0C3FD00F002F810BDC4
:101540007047704706480078012808D105480078A0
:10155000FF2804D203480078401C024908707047F5
:10156000460000203900002010B500241A480078F9
:10157000012830D1FEF784FE04461848007820B1D7
:1015800016480078401E1549087014480078F8B9CC
:1015900013480078E0B900F027FE12481249097894
:1015A00050F82100114908600F4800781049097867
:1015B00088420DD00D480068806B401C0B490968BB
:1015C00088630C480068401C0A490860FEF778FEF2
:1015D0002046FEF759FE10BD4600002039000020CD
:1015E0003A000020480B00203C000020540000205E
:1015F0003B0000202000002010B500240B4800789C
:10160000012811D1FEF73CFE04460948007840B994
:1016100008480078FF2804D206480078401C054995
:1016200008702046FEF730FE10BD00004600002086
:10163000390000203A00002010B50024134800783B
:10164000012821D1FEF71CFE044611480078C0B1E4
:101650000F480078401E0E4908700846007860B9AF
:101660000C48007828B92046FEF70EFE00F082FDF7
:101670000AE02046FEF708FE06E02046FEF704FEDC
:1016800002E02046FEF700FE10BD000046000020EC
:101690003A0000203900002010B50B48007890B9BE
:1016A00000F0A2FD09480078094908700948074977
:1016B000097850F821000849086008460068074981
:1016C0000860FEF7E4FD10BD460000203C0000204D
:1016D0003B000020480B0020540000204C0000205C
:1016E000704700002DE9FE4F06460F4690461C4607
:1016F0004FF00009FEF7C4FD81461F48007828B16D
:101700004846FEF7C1FD3C20BDE8FE8F1B4850F85F
:10171000240060BB0120194941F824004846FEF727
:10172000B3FD002342463946304600F0B5F9824603
:101730000020009001900346024651460290204648
:1017400000F068FD054635B90D48007801280CD138
:1017500000F010FD09E0FEF793FD814600200749E7
:1017600041F824004846FEF78FFD2846CCE748465E
:10177000FEF78AFD2820C7E739000020480B00202B
:10178000460000202DE9F04F85B081468A469346F9
:101790001C46DDE90F78129D00200390FEF770FDD6
:1017A00003902348007830B10398FEF76DFD3C208C
:1017B00005B0BDE8F08F1F4850F8240088BB012019
:1017C0001C4941F824000398FEF75EFD2A46414675
:1017D000384600F03BFE2B465A465146484600F03C
:1017E0005BF904901198CDE9008002953A462046B5
:1017F0000E9B049900F00EFD064636B90E4800789F
:1018000001280CD100F0B6FC09E0FEF739FD039089
:101810000020084941F824000398FEF735FD3046C2
:10182000C6E7FFE70398FEF72FFD2820C0E700007A
:1018300039000020480B00204600002070470000BF
:101840002DE9F041054600274748007810B14020B7
:10185000BDE8F0813F2D01D13E20F9E7FEF710FDF4
:101860000746FF2D03D14148006890F832504048A8
:1018700050F8254024B93846FEF706FD4320E7E737
:10188000012C04D13846FEF7FFFC3D20E0E714F8B8
:10189000340F3849085C617888432178354A5054C0
:1018A00014F834091146085C30B994F836103248FF
:1018B0000078884330490870E06918B12046E16932
:1018C00000F0CCFA666A16B1304600F009FB002041
:1018D000E06284F8300084F8310028480078FF285E
:1018E00004D226480078401C244908703846FEF788
:1018F000CBFC00F0B2FAFEF7C3FC07461F480078A5
:1019000020B11E480078401E1C490870204600F097
:1019100041F81B480078401E1949087000201449FE
:1019200041F82500A06930B9002061698861154936
:101930006069086005E0D4E905014861D4E9051053
:1019400088611148006860610F4804600FA0E0647E
:101950003846FEF799FC0E480078012801D100F0C6
:1019600009FC002074E70000390000204C00002032
:10197000480B00203E0000203D0000203A000020DF
:101980004700002058000020500000203F000000C9
:1019900046000020704770472DE9F04106460F468B
:1019A00014464FF000081548007818B11220207036
:1019B000BDE8F081FEF764FC8046FF2E03D110489D
:1019C000006890F832600F4850F826502DB9404614
:1019D000FEF75AFC43202070EAE7012D05D140466E
:1019E000FEF752FC43202070E2E7EF644046FEF72A
:1019F0004BFC0020207000BFDAE700003900002017
:101A00004C000020480B0020704770472DE9F0473C
:101A100007460D464FF0000A002028606860FEF778
:101A20002FFC8246FF2F03D11948006890F83270CE
:101A3000184850F827402CB95046FEF725FC4320A3
:101A4000BDE8F087012C04D15046FEF71DFC432071
:101A5000F6E7207C00F0010020B95046FEF714FCA8
:101A60004520EDE70026D4F80C90D4F808805046C5
:101A7000FEF70AFC00E0761C58F8041B0029FAD097
:101A8000B0002860A9EB0600800068600020D7E75E
:101A90004C000020480B002070B50446104600267C
:101AA000051F28462E604FF48056051F28462E60DD
:101AB0001526051F28462E601426051F28462E6071
:101AC0001326051F28462E601226051F28462E6065
:101AD0001126051F28462E601026051F28462E6059
:101AE0000926051F28462E600826051F28462E6059
:101AF0000726051F28462E600626051F28462E604D
:101B00000526051F28462E600426051F28462E6040
:101B10000326051F28462E600226051F28462E6034
:101B20000126051F28462E600026051F28462E6028
:101B30004FF080750560051F28462C60414E051F3B
:101B400028462E604FF01236051F28462E604FF0B3
:101B50000336051F28462E604FF00236051F284623
:101B60002E607610051F28462E60051F2846296026
:101B70003126051F28462E603026051F28462E6078
:101B80002926051F28462E602826051F28462E6078
:101B90002726051F28462E602626051F28462E606C
:101BA0002526051F28462E602426051F28462E6060
:101BB0002326051F28462E602226051F28462E6054
:101BC0002126051F28462E602026051F28462E6048
:101BD0001926051F28462E601826051F28462E6048
:101BE0001726051F28462E601626051F28462E603C
:101BF0004FF01136051F28462E604FF01036051F96
:101C000028462E604FF00936051F28462E604FF0FB
:101C10000836051F28462E604FF00736051F284658
:101C20002E604FF00636051F28462E604FF0053611
:101C3000051F28462E604FF00436051F28462E60EB
:101C400070BD0000712300082DE9F04105464FF0FA
:101C50000008FEF715FB8046FF2D05D120480068DF
:101C600090F83250012608E01D48006890F83200D4
:101C7000A84201D1012600E000261A4850F825406C
:101C80002CB94046FEF700FB4820BDE8F081012C4E
:101C900004D14046FEF7F8FA4320F6E794F8347092
:101CA0001148C05D94F8351088430F49C85508465F
:101CB000C05D30B994F836100C48007888430B4961
:101CC000087094F8300040F0080084F83000404676
:101CD000FEF7DAFA012E01D100F04CFA0020D4E729
:101CE0004C000020480B00203E0000203D0000205A
:101CF0007047000070B5054600261748007800B10F
:101D000070BD1648007800B1FAE71DB3FEF7B8FAC7
:101D100006461348006890F834401248005D1049A8
:101D2000096891F8351088430E4908550846005D4A
:101D300040B90B48006890F836100B48007888438B
:101D40000949087006480068C5623046FEF79CFAEB
:101D500000F010FA00BFD3E7390000203A0000205D
:101D60004C0000203E0000203D00002070B5002601
:101D700000F072F8FEF784FA064631480068401C0D
:101D80002F4908603046FEF77FFA2E480078012878
:101D900053D12D48007820B1012804D0022809D160
:101DA00003E001250BE0002509E00125012026497B
:101DB000087004E0012500202349087000BF00BF1F
:101DC00005B970BD2148046833E0FEF759FA0646AC
:101DD000E06A50B3E06A401EE062E06A28BB94F813
:101DE000300000F0370040B114F8300F00F0C800A8
:101DF000207001206070303C02E0002084F8310047
:101E000094F8300000F0080078B93434A078104914
:101E1000097808430E49087020780E49085C6178FB
:101E2000084314F834190B4A505464693046FEF7DD
:101E30002BFA94F832003F28C7D100BFC1E7000059
:101E400064000020460000205C00002058000020B4
:101E50003D0000203E0000207047704710B590F80C
:101E6000342001F10B039B5C90F83540A34301F152
:101E70000B04A35423469B5C23B98B7A90F836401D
:101E8000A3438B7210BD00002DE9F0415021114891
:101E900000F03EF900250DE0681C86B20D4800EB0D
:101EA000051400EB06170020207067600AA0E060B0
:101EB000681C85B2042DEFD3064800EB0514002002
:101EC0002070606004A0E060024804490860BDE83A
:101ED000F0810000F80600203F00000028000020EC
:101EE00030B501464A6808682AB9CC68606028B1F4
:101EF0000025456002E0106000B142608B6800255B
:101F00005D6230BD70B5C821114800F001F90023B1
:101F10000FE0581C85B203EB83000D4901EB8004F0
:101F200005EB850001EB8006002020706660581CE0
:101F300083B2092BEDD303EB8300054901EB800449
:101F400000202070606008460249086070BD0000F3
:101F5000300600202400002000200A4908600A49B9
:101F600008700A4908700A4908700A4908700A4945
:101F700008600A4908600A4908600A4908600A4975
:101F80000870704764000020390000203A000020EB
:101F900047000020460000202000002048000020CC
:101FA00034000020300000203800002000210A4AC0
:101FB0001170002004E00021084A1154411CC8B2ED
:101FC0000828F8D30021064A1170064A1170064A03
:101FD0001160064A116070473D0000203E0000205D
:101FE0003B0000203C000020540000204C0000205A
:101FF00070B54FF47C71194800F08AF84FF4807185
:10200000174800F085F8002413E0601CC5B2C4EB4B
:10201000C40000EB4000114901EB8003C5EBC50093
:1020200000EB400001EB80065E610EA0D864601CEE
:10203000C4B20B2CE9D3C4EBC40000EB4000074949
:1020400001EB80030020586106A0D86400200649F7
:10205000086002480549086070BD0000480C002077
:10206000480B00203F0000005800002050000020D6
:1020700000B587B00320002180220A4BCDE9013250
:10208000CDE903104FF6FF703F23074A0090074841
:10209000FFF778FB06AA06A13F20FFF77DFC07B0FB
:1020A00000BD000048090020440B0020492300081F
:1020B00075432F4F532D49492049646C650000003A
:1020C00000B587B00320002180220A4BCDE9013200
:1020D000CDE903104FF6FE703E23074A00900748F3
:1020E000FFF750FB06AA06A13E20FFF755FC07B0FC
:1020F00000BD000048070020440900208923000893
:1021000075432F4F532D49492053746174000000CB
:1021100004E0002200F8012B4A1E91B20029F8D1F8
:10212000704700002DE9F04178211048FFF7F0FFDB
:1021300000240DE0601C86B204EB44000B4901EB67
:10214000C00506EB460001EBC0072F60601C84B29F
:10215000042CEFD304EB4400044901EBC00500203C
:102160002860084602490860BDE8F0813810002068
:102170006000002010B50024FEF782F804461348E2
:102180000078F8B912480078E0B900F02DF811484D
:102190001149097850F82100104908600E4800786C
:1021A0000F49097888420DD00C480068806B401CAC
:1021B0000A49096888630B480068401C094908609F
:1021C000FEF777F82046FEF75FF810BD39000020D3
:1021D0003A000020480B00203C0000205400002062
:1021E0003B000020200000200649074A1278885C46
:1021F0000649095C034A515C01EBC001044A1170B5
:1022000070470000363200083D0000203E000020EC
:102210003C0000202DE9F84F05460F4690469946B0
:10222000DDE90AAB00200090FEF72AF800903F4855
:102230000468002C74D0183454F8040C3B4908602E
:102240000098FEF721F844F8187CA5760020207647
:102250006076606144F814BC44F80CAC44F8108C0F
:102260000C9824F8080C24F8069C0020E077E8106D
:10227000207705F00700E076217F01208840A077D5
:10228000E17E01208840607700206060E060A0600F
:102290002062A0626062E062206325A06063183C57
:1022A000002606E0002104F1500040F82610701CC2
:1022B000C6B2002EF6D02046FFF712FA2046FFF7EE
:1022C000BDFAFDF7DDFF00901A4840F825401A4896
:1022D000006860610020A0611748006810B11648CE
:1022E00000688461144804603434A0781349097884
:1022F00008431249087020781149085C6178084346
:1023000014F834190E4A50540E480078401C0D49F8
:1023100008700098FDF7B8FF0020BDE8F88FFFE7D0
:102320000098FDF7B1FF4220F7E7000050000020C1
:102330003F000000480B0020580000203D00002016
:102340003E00002047000020002400BF00BFFDF732
:1023500097FF044605480068401C04490860204671
:10236000FDF792FFFFF717FBF1E7000048000020A0
:1023700010B504480068FFF747FBFF20FFF760FA3D
:1023800010BD00004C000020002400BF02E0282007
:10239000FFF7B0FC194800780028F8D0184800680A
:1023A0006421B0FBF1F0164908600846006828B9BE
:1023B000002014490870FF20FFF746FC00BFFDF71E
:1023C0005FFF0446104800681049086000200E496D
:1023D00008602046FDF758FF0C4800680849096866
:1023E000B0FBF1F0C0F1640006490870FFF70DFB87
:1023F00000F00EF81420FFF77DFCE0E73800002025
:10240000300000202C000020480000203400002074
:102410007CB5002514E069462846FFF7F7FA064622
:1024200066B9094850F8254044B1012C06D0D4E9DA
:10243000020100EB810060640198A064681CC5B2D1
:102440003F2DE8D97CBD0000480B002002F00103BD
:1024500043B102F002032BB102E0491E002308C081
:102460000029FAD17047000029B1064A12680243D8
:10247000044B1A6004E0034A12688243014B1A605D
:10248000704700003038024029B1064A1268024302
:10249000044B1A6004E0034A12688243014B1A603D
:1024A0007047000044380240F0B5002100220024AB
:1024B000022500260223324F3F6807F00C0121B1AC
:1024C000042905D0082937D105E02E4F076036E0F2
:1024D0002D4F076033E02A4F3F1F3F68C7F38056F8
:1024E000274F3F1F3F6807F03F036EB1264FB7FBF2
:1024F000F3F7DFF88CC0ACF1040CDCF800C0CCF3CF
:10250000881C07FB0CF40CE01E4FB7FBF3F7DFF859
:1025100070C0ACF1040CDCF800C0CCF3881C07FBE5
:102520000CF4174F3F1F3F68C7F301477F1C7D0026
:10253000B4FBF5F7076002E0124F076000BF00BF71
:102540000F4F3F6807F0F0010909104F7A5C0768E8
:10255000D74047600A4F3F6807F4E051890A0B4FA4
:102560007A5C4768D7408760054F3F6807F4604151
:10257000490B064F7A5C4768D740C760F0BD000042
:10258000083802400024F40040787D010400002057
:10259000704700000CB5002001900090344800689E
:1025A00040F480303249086000BF3148006800F4D0
:1025B000003000900198401C0190009818B90198D3
:1025C000B0F5A04FF1D12A48006800F4003010B1F6
:1025D0000120009001E0002000900098012846D1E1
:1025E00023484030006840F0805021494031086065
:1025F0002048006840F440401E4908601C480830EC
:1026000000681B49083108600846006840F4004033
:1026100008600846006840F4A05008601648091F8A
:102620000860081F006840F08070091F086000BF44
:102630000F48006800F000700028F9D040F20570E3
:102640000E4908600A480830006820F00300084975
:10265000083108600846006840F00200086000BFCA
:1026600003480830006800F00C000828F8D10CBDC1
:10267000003802400070004019544007003C0240FE
:10268000042808D14FF0E021096941F004014FF01E
:10269000E022116107E04FF0E021096921F0040117
:1026A0004FF0E0221161704710B50548007801280D
:1026B00005D1FEF747FFFFF759FBFEF755FF10BDA9
:1026C0004600002010B51548006840F4700013491A
:1026D00008601348006840F00100114908600020BC
:1026E0000F49083108600E4800680E4908400C493F
:1026F00008600D48091D0860081F006820F480204C
:10270000091F0860002006490C310860FFF742FFEE
:102710004FF0006001498039086010BD88ED00E08D
:1027200000380240FFFFF6FE1030002410B5FEF71F
:1027300009FF40F225511E4800F04CF810B31C4828
:1027400000F002F9C4B21B48008800F40040C8B988
:102750001848008800F4804060B10A2C03D00020A3
:102760001449088020E01348008840F400401149D3
:10277000088019E00D2C06D10E48008840F48040F6
:102780000C49088010E00B480088C0F30D000A498E
:102790000C5408480088401C0649088008460088F8
:1027A000C72801DD00200880FEF7DEFE10BD000016
:1027B000001001401C0000206805002021B1828922
:1027C00042F40052828104E082894DF6FF731A4080
:1027D0008281704770B50246002400230025002046
:1027E00040F66A16B14200D100BFC1F3421501F0B4
:1027F0001F03012606FA03F3012D02D19689334007
:1028000006E0022D02D1168A334001E0968A334059
:102810000C12012606FA04F41688344013B10CB1E8
:10282000012000E0002070BDF0B503460024002622
:102830000025002040F66A17B94200D100BF1846B3
:10284000C1F3421401F01F06012707FA06F5012C17
:1028500001D10C3004E0022C01D1103000E0143022
:102860001AB107682F43076002E00768AF430760AB
:10287000F0BD00002DE9FF4705460E460024A146A5
:1028800000BFA046B08900B100BF2C8A24F4405498
:10289000F08804432C82AC8941F20C608443B088F8
:1028A00031890843718908430443AC81AC8A24F41C
:1028B0004074B0890443AC826846FFF7F5FD2048B8
:1028C000854202D01F48854202D1DDF80C9001E01C
:1028D000DDF80890A88900F4004040B109EBC90078
:1028E00000EB091031684900B0FBF1F707E009EB94
:1028F000C90000EB091031688900B0FBF1F76420D2
:10290000B7FBF0F004012009642101FB1078A889CD
:1029100000F4004040B1322000EBC800B0FBF1F001
:1029200000F00700044308E0322000EB08106421A7
:10293000B0FBF1F000F00F0004432C81BDE8FF87ED
:10294000001001400014014001468888C0F30800CF
:10295000704700BFFEE703B401984100009850EAB9
:10296000C12018BF04204A0D18BF40F0010040F2FA
:10297000FF72B2EB515F08BF40F00200012808BFB0
:10298000052002B0704730380A2801D20120704774
:1029900000207047014600BF7047000070B5044634
:1029A0006FF00400FFF76CFEE11704EB5171C1F307
:1029B000C7010D4A1170E11704EB5171CD1041F2BE
:1029C000883045430520094908804FF0E020006920
:1029D00040F002004FF0E0210861084645610069BF
:1029E00040F00100086170BD1400002016000020B6
:1029F00070B504460F480078A0B10F48007888B938
:102A00000E480088844206DB0C48008894FBF0F5F1
:102A1000284600F01DF80948008894FBF0F100FBFF
:102A2000114084B24FF47A7104FB01F000F016F803
:102A300070BD000046000020390000201600002074
:102A400010B5FEF7D9FD10BD10B5FEF7F5FD10BDB0
:102A500010B504462046FFF74DF910BD2DE9F047AB
:102A6000074600264FF0E020D0F814901048007878
:102A700007FB00F8FFF7E4FF4FF0E020856911E065
:102A80004FF0E0208469AC420CD0AC4202D2281B4B
:102A9000064403E0A9EB04002844064425464645C5
:102AA00000D300E0ECE700BFFFF7CEFFBDE8F08702
:102AB000140000202DED048B002426E0134800684C
:102AC00000F03CFB41EC190B9FED110B53EC102B6C
:102AD00000F04EF941EC180B00F018F90B490860B2
:102AE000FDF7CEFB04460948006800F027FB41ECE7
:102AF000180B53EC182B08A0FDF728FC2046FDF717
:102B0000C3FB4FF4FA70FFF773FFD7E70000002014
:102B10007B14AE47E17A843F666C6F61745F6E75BB
:102B20006D203D20252E34660D0A000000BF054AA9
:102B3000128802F04002002AF9D0C2B2014B9A80FA
:102B4000704700000010014010E04FF400510848A9
:102B5000FEF776FC5020FFF74BFF4FF4005104487E
:102B6000FEF76CFC4FF46670FFF742FFEDE70000E4
:102B70000010024011E04FF480410848FEF760FC6D
:102B80004FF49670FFF734FF4FF480410348FEF78F
:102B900055FC4FF49670FFF72BFFECE70010024056
:102BA00010B54FF4E13000F045F8A820FFF7F6FE2D
:102BB0004FF4A060FEF7A4FCFEF746FCFEF7AAFC6B
:102BC0000A23044A00210448FEF78CFDFEF764FD49
:102BD000002010BD64010020DD2B000870B5044604
:102BE000002500BFFDF74CFB054607230B4A0021DB
:102BF0000B48FEF777FD06230A4A00210A48FEF734
:102C000071FD0523094A00210948FEF76BFD0A20E2
:102C1000FFF71AF82846FDF737FB70BD6402002065
:102C2000492B000864030020752B00086405002070
:102C3000B52A000810B588B0044601210846FFF700
:102C400013FC01211020FFF71FFC07220921224855
:102C5000FEF7D1FB07220A211F48FEF7CCFB4FF4F9
:102C6000C060069002208DF81C008DF81D00002029
:102C70008DF81E0001208DF81F0006A91648FEF7EA
:102C800072FB02940020ADF80C00ADF80E00ADF818
:102C90001000ADF814000C20ADF8120002A90F4886
:102CA000FFF7E8FD01210D48FFF788FD012240F202
:102CB00025510A48FFF7B8FD25208DF804000320B0
:102CC0008DF805008DF8060001208DF8070001A899
:102CD000FEF7DAFB08B010BD000002400010014012
:102CE00010B500290AD00878002807D00548784494
:102CF000FDF72EFF002801D0002010BD02487844C7
:102D000010BD0000FE060000F606000021F00042A3
:102D1000A2F16052B2F5801F01F0004328BFD2F14A
:102D20007F6C0BD95FEA001C43EAC20242EB507091
:102D300018BF704728BF20F001007047B2F5801F10
:102D4000BCBF184670474FEA410C1CF5001F02D269
:102D5000084600F069BA70B500F0B2F800000089CA
:102D6000FFF7F6BF4FF00040A0F58000704700006D
:102D700010B591EA030F48BF83F0004300F1FC80D7
:102D8000841A71EB030C05D2121943EB0C03001BE0
:102D900061EB0C01DFF824E14FEA1154A4EB135C62
:102DA0001EEA430F18BF9EEA445F73D023EA0E0366
:102DB000DCF1200E21EA045143F4801332D322FACD
:102DC0000CFE10EB0E0023FA0CFE41EB0E01CCF1D1
:102DD000200E03FA0EFE10EB0E0051F10001B1F5CA
:102DE000801FCCF1200E32D201EB045112FA0EF208
:102DF000BDE8104058BF7047401C38BF5FEA420230
:102E000018BF7047002814BF20F0010041F10001F5
:102E10004FEA410313F5001F38BF7047A1F1C041CD
:102E200000F09CB8012A43EB0302ACF1200CDCF16A
:102E30001F0E32BF4FF0000E23FA0CF310EB03000D
:102E400041EB0451B4EB115FD0D0A1EB045101F57B
:102E5000801149085FEA300001EB04510ED350F1B4
:102E6000000038BF12FA0EFE08D1BDE81040C9E7D5
:102E7000401C38BF5FEA4202CAD1C3E7BDE8104038
:102E80004FEA410313F5001F38BF7047A1F1C0415D
:102E900000F064B89EEA445F08D011EA5E0FBDE816
:102EA000104004BF01F0004100207047BDE8104011
:102EB00070B500F005F800BF64FBBE3E0000E0FF07
:102EC0000EF1020E2EF0030E5EF8046B364205D4AE
:102ED000012A43EB030515F5001F12D8012841EB29
:102EE000010C1CF5001F0CD80ED14FEAD17C15F552
:102EF000001F0CEB4C0C0CF1020C08BF4CEBD37C0C
:102F000004E04FF0080C01E04FEAD37C0CEB4C05D9
:102F100026FA05F606F00706B6F1040C06D20EEB0B
:102F2000860CBDE870404CF0010C6047DFE80CF007
:102F3000090B02024FF000414FF00000A1F5002103
:102F400070BD19461046012851EB010418BFD4F595
:102F5000001484BF002001F0004170BD0808A0F5F6
:102F600000114FEA3101704710B591EA030F48BFD5
:102F700083F000433FF504AF841A71EB030C07D2D2
:102F800012198CF0004C43EB0C03001B61EB0C019D
:102F9000DFF8A4E14FEA1154A4EB135C1EEA430FDF
:102FA00018BF9EEA445F00F0B08023EA6E035242ED
:102FB00021EA0451C3EB6E0338BF5B1EDCF1200E27
:102FC00025D322FA0CFE10EB0E0043FA0CFE41EB67
:102FD0000E01CCF1200E03FA0EFE10EB0E0051F1A3
:102FE0000001CCF1200E29D412FA0EF201EB0451AB
:102FF000BDE8104058BF7047401C1CBFB2F1004FE5
:10300000704700280CBF491C20F00100704712EBEC
:10301000020E43EB030218BF4FF0010E4EEA4202CC
:10302000ACF1200CDCF11E0E54D943FA0CFE10EB6F
:103030000E0051F1FF31CCF11E0ED5D50EF1010E6F
:1030400012FA0EFE404141EB010101EB445C5FEAE4
:103050005C5C10D910EBDE7001EB045138BFBEF19F
:10306000004FBDE8104018BF704700280CBF491C36
:1030700020F00100704730D24FEAD42C11F5001136
:1030800024F400641BD0B1FA81F20B3AA41AA41EF6
:10309000D2F12003914030FA03F31943904001EB41
:1030A000CC71002C01EB0451BDE81040A8BF704763
:1030B00001F1C0414FF0000001F000417047B0FA4B
:1030C00080F310FA03F100D110BDE41A173C480553
:1030D000C90AE4E701EB045110BD491001EB0451AA
:1030E000BDE810404FEA300002E04FF000017047A9
:1030F0004A0008BF0042F8D0B2F5001F28BF704751
:1031000001F000414FF0000070479EEA445F07D095
:1031100011EA5E0FBDE8104004BF00210020704797
:10312000BDE8104070B5FFF7CBFE00BF40DFF63EB4
:1031300083F00041104670470000E0FF43004FEA73
:10314000D30C4FEA3C0C43401FBF40070CF16051C9
:1031500013F0FE4F70471CF0006F03D100200CF0FD
:10316000004170470CF0004343EA507010B540EA4C
:10317000CC0000F00EF800BF000000924FEA000102
:10318000FFF7ECBE4FF000414FF00000A1F5002129
:1031900070470EF1020E2EF0030E5EF8044B24422F
:1031A00004D44FEA4102B2F17F4F11D84FEA4003F5
:1031B000B3F17F4F0CD80ED14FEAD07CB2F17F4FE4
:1031C0000CEB4C0C0CF1020C08BF4CEBD17C04E076
:1031D0004FF0080C01E04FEAD17C0CEB4C0324FAD1
:1031E00003F404F00704B4F1040C06D20EEB840CD3
:1031F000BDE810404CF0010C6047DFE80CF0070818
:1032000002024FF00040A0F5800010BD08464200C9
:1032100018BFD2F1807288BF00F0004010BD4FF09F
:103220004070E1EE100A7047FF2141EAD050C0051E
:103230007047FDF7FBB90000010002000100030028
:10324000010002000100040001000200010003006F
:10325000010002000100050001000200010003005E
:10326000010002000100040001000200010003004F
:10327000010002000100060001000200010003003D
:10328000010002000100040001000200010003002F
:10329000010002000100050001000200010003001E
:1032A000010002000100040001000200010003000F
:1032B00001000200010007000100020001000300FC
:1032C00001000200010004000100020001000300EF
:1032D00001000200010005000100020001000300DE
:1032E00001000200010004000100020001000300CF
:1032F00001000200010006000100020001000300BD
:1033000001000200010004000100020001000300AE
:10331000010002000100050001000200010003009D
:10332000010002000100040001000200010003008E
:10333000010002000100000002400000000000A0A7
:103340000000000005400000000000C80000000070
:103350000C4000000000409C0000000019400000EC
:103360000020BCBE0000000034400000BFC91B8E1E
:1033700000000004B5400000504BCFD06607E2CFFC
:10338000010000006C4100003E8251AADFEEA7342C
:1033900001000000D9420000DCB5A0E23A301F97DE
:1033A000FFFFFFFFB4450000FD25A0C8E9A3C14F02
:1033B000FFFFFFFFFF3F0000000000800000000053
:1033C000FF3F0000000000800000000008340008FB
:1033D0000000002068000000C401000870340008EC
:1033E00068000020A8160000E00100081C00000092
:1033F00043000000F8FFFFFF0C0000000E0000007B
:103400000F0000002E0000000AD7233C000000003F
:10341000010203040102030406070809000000007A
:10342000000000000000000000000000000000009C
:10343000000000000000000000000000000000008C
:10344000000000000000000000000000000000007C
:10345000000000000000000000000000000000006C
:10346000000000000000000000000000000000005C
:040000050800018965
:00000001FF
